{
  "_format": "hh-sol-artifact-1",
  "contractName": "NFT",
  "sourceName": "contracts/NFT.sol",
  "abi": [
    {
      "inputs": [
        {
          "internalType": "address",
          "name": "_marketplaceAddress",
          "type": "address"
        }
      ],
      "stateMutability": "nonpayable",
      "type": "constructor"
    },
    {
      "anonymous": false,
      "inputs": [
        {
          "indexed": true,
          "internalType": "address",
          "name": "owner",
          "type": "address"
        },
        {
          "indexed": true,
          "internalType": "address",
          "name": "approved",
          "type": "address"
        },
        {
          "indexed": true,
          "internalType": "uint256",
          "name": "tokenId",
          "type": "uint256"
        }
      ],
      "name": "Approval",
      "type": "event"
    },
    {
      "anonymous": false,
      "inputs": [
        {
          "indexed": true,
          "internalType": "address",
          "name": "owner",
          "type": "address"
        },
        {
          "indexed": true,
          "internalType": "address",
          "name": "operator",
          "type": "address"
        },
        {
          "indexed": false,
          "internalType": "bool",
          "name": "approved",
          "type": "bool"
        }
      ],
      "name": "ApprovalForAll",
      "type": "event"
    },
    {
      "anonymous": false,
      "inputs": [
        {
          "indexed": false,
          "internalType": "uint256",
          "name": "_fromTokenId",
          "type": "uint256"
        },
        {
          "indexed": false,
          "internalType": "uint256",
          "name": "_toTokenId",
          "type": "uint256"
        }
      ],
      "name": "BatchMetadataUpdate",
      "type": "event"
    },
    {
      "anonymous": false,
      "inputs": [
        {
          "indexed": false,
          "internalType": "uint256",
          "name": "_tokenId",
          "type": "uint256"
        }
      ],
      "name": "MetadataUpdate",
      "type": "event"
    },
    {
      "anonymous": false,
      "inputs": [
        {
          "indexed": true,
          "internalType": "uint256",
          "name": "tokenId",
          "type": "uint256"
        },
        {
          "indexed": false,
          "internalType": "string",
          "name": "tokenURI",
          "type": "string"
        },
        {
          "indexed": false,
          "internalType": "address",
          "name": "marketplaceAddress",
          "type": "address"
        }
      ],
      "name": "TokenMinted",
      "type": "event"
    },
    {
      "anonymous": false,
      "inputs": [
        {
          "indexed": true,
          "internalType": "address",
          "name": "from",
          "type": "address"
        },
        {
          "indexed": true,
          "internalType": "address",
          "name": "to",
          "type": "address"
        },
        {
          "indexed": true,
          "internalType": "uint256",
          "name": "tokenId",
          "type": "uint256"
        }
      ],
      "name": "Transfer",
      "type": "event"
    },
    {
      "inputs": [
        {
          "internalType": "address",
          "name": "to",
          "type": "address"
        },
        {
          "internalType": "uint256",
          "name": "tokenId",
          "type": "uint256"
        }
      ],
      "name": "approve",
      "outputs": [],
      "stateMutability": "nonpayable",
      "type": "function"
    },
    {
      "inputs": [
        {
          "internalType": "address",
          "name": "owner",
          "type": "address"
        }
      ],
      "name": "balanceOf",
      "outputs": [
        {
          "internalType": "uint256",
          "name": "",
          "type": "uint256"
        }
      ],
      "stateMutability": "view",
      "type": "function"
    },
    {
      "inputs": [
        {
          "internalType": "uint256",
          "name": "tokenId",
          "type": "uint256"
        }
      ],
      "name": "burner",
      "outputs": [],
      "stateMutability": "nonpayable",
      "type": "function"
    },
    {
      "inputs": [],
      "name": "contractOwner",
      "outputs": [
        {
          "internalType": "address",
          "name": "",
          "type": "address"
        }
      ],
      "stateMutability": "view",
      "type": "function"
    },
    {
      "inputs": [
        {
          "internalType": "uint256",
          "name": "tokenId",
          "type": "uint256"
        }
      ],
      "name": "getApproved",
      "outputs": [
        {
          "internalType": "address",
          "name": "",
          "type": "address"
        }
      ],
      "stateMutability": "view",
      "type": "function"
    },
    {
      "inputs": [
        {
          "internalType": "uint256",
          "name": "tokenId",
          "type": "uint256"
        }
      ],
      "name": "getTokenCreatorById",
      "outputs": [
        {
          "internalType": "address",
          "name": "",
          "type": "address"
        }
      ],
      "stateMutability": "view",
      "type": "function"
    },
    {
      "inputs": [],
      "name": "getTokensCreatedByMe",
      "outputs": [
        {
          "internalType": "uint256[]",
          "name": "",
          "type": "uint256[]"
        }
      ],
      "stateMutability": "view",
      "type": "function"
    },
    {
      "inputs": [],
      "name": "getTokensOwnedByMe",
      "outputs": [
        {
          "internalType": "uint256[]",
          "name": "",
          "type": "uint256[]"
        }
      ],
      "stateMutability": "view",
      "type": "function"
    },
    {
      "inputs": [
        {
          "internalType": "address",
          "name": "owner",
          "type": "address"
        },
        {
          "internalType": "address",
          "name": "operator",
          "type": "address"
        }
      ],
      "name": "isApprovedForAll",
      "outputs": [
        {
          "internalType": "bool",
          "name": "",
          "type": "bool"
        }
      ],
      "stateMutability": "view",
      "type": "function"
    },
    {
      "inputs": [
        {
          "internalType": "uint256",
          "name": "tokenId",
          "type": "uint256"
        }
      ],
      "name": "isBurned",
      "outputs": [
        {
          "internalType": "bool",
          "name": "",
          "type": "bool"
        }
      ],
      "stateMutability": "view",
      "type": "function"
    },
    {
      "inputs": [
        {
          "internalType": "string",
          "name": "tokenURI",
          "type": "string"
        }
      ],
      "name": "mintToken",
      "outputs": [
        {
          "internalType": "uint256",
          "name": "",
          "type": "uint256"
        }
      ],
      "stateMutability": "nonpayable",
      "type": "function"
    },
    {
      "inputs": [],
      "name": "name",
      "outputs": [
        {
          "internalType": "string",
          "name": "",
          "type": "string"
        }
      ],
      "stateMutability": "view",
      "type": "function"
    },
    {
      "inputs": [
        {
          "internalType": "uint256",
          "name": "typeId",
          "type": "uint256"
        }
      ],
      "name": "numberOfTokens",
      "outputs": [
        {
          "internalType": "uint256",
          "name": "",
          "type": "uint256"
        }
      ],
      "stateMutability": "view",
      "type": "function"
    },
    {
      "inputs": [
        {
          "internalType": "uint256",
          "name": "tokenId",
          "type": "uint256"
        }
      ],
      "name": "ownerOf",
      "outputs": [
        {
          "internalType": "address",
          "name": "",
          "type": "address"
        }
      ],
      "stateMutability": "view",
      "type": "function"
    },
    {
      "inputs": [
        {
          "internalType": "address",
          "name": "from",
          "type": "address"
        },
        {
          "internalType": "address",
          "name": "to",
          "type": "address"
        },
        {
          "internalType": "uint256",
          "name": "tokenId",
          "type": "uint256"
        }
      ],
      "name": "safeTransferFrom",
      "outputs": [],
      "stateMutability": "nonpayable",
      "type": "function"
    },
    {
      "inputs": [
        {
          "internalType": "address",
          "name": "from",
          "type": "address"
        },
        {
          "internalType": "address",
          "name": "to",
          "type": "address"
        },
        {
          "internalType": "uint256",
          "name": "tokenId",
          "type": "uint256"
        },
        {
          "internalType": "bytes",
          "name": "data",
          "type": "bytes"
        }
      ],
      "name": "safeTransferFrom",
      "outputs": [],
      "stateMutability": "nonpayable",
      "type": "function"
    },
    {
      "inputs": [
        {
          "internalType": "address",
          "name": "operator",
          "type": "address"
        },
        {
          "internalType": "bool",
          "name": "approved",
          "type": "bool"
        }
      ],
      "name": "setApprovalForAll",
      "outputs": [],
      "stateMutability": "nonpayable",
      "type": "function"
    },
    {
      "inputs": [
        {
          "internalType": "bytes4",
          "name": "interfaceId",
          "type": "bytes4"
        }
      ],
      "name": "supportsInterface",
      "outputs": [
        {
          "internalType": "bool",
          "name": "",
          "type": "bool"
        }
      ],
      "stateMutability": "view",
      "type": "function"
    },
    {
      "inputs": [],
      "name": "symbol",
      "outputs": [
        {
          "internalType": "string",
          "name": "",
          "type": "string"
        }
      ],
      "stateMutability": "view",
      "type": "function"
    },
    {
      "inputs": [
        {
          "internalType": "uint256",
          "name": "tokenId",
          "type": "uint256"
        }
      ],
      "name": "tokenURI",
      "outputs": [
        {
          "internalType": "string",
          "name": "",
          "type": "string"
        }
      ],
      "stateMutability": "view",
      "type": "function"
    },
    {
      "inputs": [
        {
          "internalType": "address",
          "name": "from",
          "type": "address"
        },
        {
          "internalType": "address",
          "name": "to",
          "type": "address"
        },
        {
          "internalType": "uint256",
          "name": "tokenId",
          "type": "uint256"
        }
      ],
      "name": "transferFrom",
      "outputs": [],
      "stateMutability": "nonpayable",
      "type": "function"
    }
  ],
  "bytecode": "0x60806040523480156200001157600080fd5b5060405162003c3438038062003c348339818101604052810190620000379190620001bc565b6040518060400160405280600e81526020017f526f6f6d486f757365546f6b656e0000000000000000000000000000000000008152506040518060400160405280600381526020017f52485400000000000000000000000000000000000000000000000000000000008152508160009081620000b4919062000468565b508060019081620000c6919062000468565b50505080600960006101000a81548173ffffffffffffffffffffffffffffffffffffffff021916908373ffffffffffffffffffffffffffffffffffffffff16021790555033600c60006101000a81548173ffffffffffffffffffffffffffffffffffffffff021916908373ffffffffffffffffffffffffffffffffffffffff160217905550506200054f565b600080fd5b600073ffffffffffffffffffffffffffffffffffffffff82169050919050565b6000620001848262000157565b9050919050565b620001968162000177565b8114620001a257600080fd5b50565b600081519050620001b6816200018b565b92915050565b600060208284031215620001d557620001d462000152565b5b6000620001e584828501620001a5565b91505092915050565b600081519050919050565b7f4e487b7100000000000000000000000000000000000000000000000000000000600052604160045260246000fd5b7f4e487b7100000000000000000000000000000000000000000000000000000000600052602260045260246000fd5b600060028204905060018216806200027057607f821691505b60208210810362000286576200028562000228565b5b50919050565b60008190508160005260206000209050919050565b60006020601f8301049050919050565b600082821b905092915050565b600060088302620002f07fffffffffffffffffffffffffffffffffffffffffffffffffffffffffffffffff82620002b1565b620002fc8683620002b1565b95508019841693508086168417925050509392505050565b6000819050919050565b6000819050919050565b600062000349620003436200033d8462000314565b6200031e565b62000314565b9050919050565b6000819050919050565b620003658362000328565b6200037d620003748262000350565b848454620002be565b825550505050565b600090565b6200039462000385565b620003a18184846200035a565b505050565b5b81811015620003c957620003bd6000826200038a565b600181019050620003a7565b5050565b601f8211156200041857620003e2816200028c565b620003ed84620002a1565b81016020851015620003fd578190505b620004156200040c85620002a1565b830182620003a6565b50505b505050565b600082821c905092915050565b60006200043d600019846008026200041d565b1980831691505092915050565b60006200045883836200042a565b9150826002028217905092915050565b6200047382620001ee565b67ffffffffffffffff8111156200048f576200048e620001f9565b5b6200049b825462000257565b620004a8828285620003cd565b600060209050601f831160018114620004e05760008415620004cb578287015190505b620004d785826200044a565b86555062000547565b601f198416620004f0866200028c565b60005b828110156200051a57848901518255600182019150602085019450602081019050620004f3565b868310156200053a578489015162000536601f8916826200042a565b8355505b6001600288020188555050505b505050505050565b6136d5806200055f6000396000f3fe608060405234801561001057600080fd5b50600436106101375760003560e01c80636352211e116100b8578063b88d4fde1161007c578063b88d4fde14610360578063b8c2f9771461037c578063c87b56dd146103ac578063ce606ee0146103dc578063db44fe07146103fa578063e985e9c51461042a57610137565b80636352211e1461029657806370a08231146102c6578063867d3397146102f657806395d89b4114610326578063a22cb4651461034457610137565b806311db8d1b116100ff57806311db8d1b146101f457806323b872dd1461021057806333eba49a1461022c57806342842e0e1461025c5780635ba377421461027857610137565b806301ffc9a71461013c57806306fdde031461016c578063081812fc1461018a578063095ea7b3146101ba5780630a989d9c146101d6575b600080fd5b6101566004803603810190610151919061235b565b61045a565b60405161016391906123a3565b60405180910390f35b6101746104bb565b604051610181919061244e565b60405180910390f35b6101a4600480360381019061019f91906124a6565b61054d565b6040516101b19190612514565b60405180910390f35b6101d460048036038101906101cf919061255b565b610593565b005b6101de6106aa565b6040516101eb9190612659565b60405180910390f35b61020e600480360381019061020991906124a6565b6107d5565b005b61022a6004803603810190610225919061267b565b610812565b005b61024660048036038101906102419190612803565b610872565b604051610253919061285b565b60405180910390f35b6102766004803603810190610271919061267b565b610984565b005b6102806109a4565b60405161028d9190612659565b60405180910390f35b6102b060048036038101906102ab91906124a6565b610baf565b6040516102bd9190612514565b60405180910390f35b6102e060048036038101906102db9190612876565b610c35565b6040516102ed919061285b565b60405180910390f35b610310600480360381019061030b91906124a6565b610cec565b60405161031d9190612514565b60405180910390f35b61032e610d29565b60405161033b919061244e565b60405180910390f35b61035e600480360381019061035991906128cf565b610dbb565b005b61037a600480360381019061037591906129b0565b610dd1565b005b610396600480360381019061039191906124a6565b610e33565b6040516103a3919061285b565b60405180910390f35b6103c660048036038101906103c191906124a6565b610e63565b6040516103d3919061244e565b60405180910390f35b6103e4610f75565b6040516103f19190612514565b60405180910390f35b610414600480360381019061040f91906124a6565b610f9b565b60405161042191906123a3565b60405180910390f35b610444600480360381019061043f9190612a33565b610ff9565b60405161045191906123a3565b60405180910390f35b6000634906490660e01b7bffffffffffffffffffffffffffffffffffffffffffffffffffffffff1916827bffffffffffffffffffffffffffffffffffffffffffffffffffffffff191614806104b457506104b38261108d565b5b9050919050565b6060600080546104ca90612aa2565b80601f01602080910402602001604051908101604052809291908181526020018280546104f690612aa2565b80156105435780601f1061051857610100808354040283529160200191610543565b820191906000526020600020905b81548152906001019060200180831161052657829003601f168201915b5050505050905090565b60006105588261116f565b6004600083815260200190815260200160002060009054906101000a900473ffffffffffffffffffffffffffffffffffffffff169050919050565b600061059e82610baf565b90508073ffffffffffffffffffffffffffffffffffffffff168373ffffffffffffffffffffffffffffffffffffffff160361060e576040517f08c379a000000000000000000000000000000000000000000000000000000000815260040161060590612b45565b60405180910390fd5b8073ffffffffffffffffffffffffffffffffffffffff1661062d6111ba565b73ffffffffffffffffffffffffffffffffffffffff16148061065c575061065b816106566111ba565b610ff9565b5b61069b576040517f08c379a000000000000000000000000000000000000000000000000000000000815260040161069290612bd7565b60405180910390fd5b6106a583836111c2565b505050565b606060006106b8600761127b565b905060006106c533610c35565b905060008167ffffffffffffffff8111156106e3576106e26126d8565b5b6040519080825280602002602001820160405280156107115781602001602082028036833780820191505090505b5090506000805b848110156107ca57600060018261072f9190612c26565b905061073a81610f9b565b1561074557506107b7565b3373ffffffffffffffffffffffffffffffffffffffff1661076582610baf565b73ffffffffffffffffffffffffffffffffffffffff161461078657506107b7565b8084848151811061079a57610799612c5a565b5b6020026020010181815250506001836107b39190612c26565b9250505b80806107c290612c89565b915050610718565b508194505050505090565b6107de81611289565b60006107ea600861127b565b90506107f660086112dc565b81600b6000838152602001908152602001600020819055505050565b61082361081d6111ba565b826112f2565b610862576040517f08c379a000000000000000000000000000000000000000000000000000000000815260040161085990612d43565b60405180910390fd5b61086d838383611387565b505050565b600061087e60076112dc565b600061088a600761127b565b90506108963382611680565b33600a600083815260200190815260200160002060006101000a81548173ffffffffffffffffffffffffffffffffffffffff021916908373ffffffffffffffffffffffffffffffffffffffff1602179055506108f2818461189d565b61091f600960009054906101000a900473ffffffffffffffffffffffffffffffffffffffff166001610dbb565b807f9ef9d09a98563c827f651a028105395cc17f94ef23eb26b70d241439386a62f484600960009054906101000a900473ffffffffffffffffffffffffffffffffffffffff16604051610973929190612d63565b60405180910390a280915050919050565b61099f83838360405180602001604052806000815250610dd1565b505050565b606060006109b2600761127b565b90506000805b82811015610a755760006001826109cf9190612c26565b90506109da81610f9b565b156109e55750610a62565b3373ffffffffffffffffffffffffffffffffffffffff16600a600083815260200190815260200160002060009054906101000a900473ffffffffffffffffffffffffffffffffffffffff1673ffffffffffffffffffffffffffffffffffffffff1614610a515750610a62565b600183610a5e9190612c26565b9250505b8080610a6d90612c89565b9150506109b8565b5060008167ffffffffffffffff811115610a9257610a916126d8565b5b604051908082528060200260200182016040528015610ac05781602001602082028036833780820191505090505b5090506000805b84811015610ba4576000600182610ade9190612c26565b9050610ae981610f9b565b15610af45750610b91565b3373ffffffffffffffffffffffffffffffffffffffff16600a600083815260200190815260200160002060009054906101000a900473ffffffffffffffffffffffffffffffffffffffff1673ffffffffffffffffffffffffffffffffffffffff1614610b605750610b91565b80848481518110610b7457610b73612c5a565b5b602002602001018181525050600183610b8d9190612c26565b9250505b8080610b9c90612c89565b915050610ac7565b508194505050505090565b600080610bbb83611941565b9050600073ffffffffffffffffffffffffffffffffffffffff168173ffffffffffffffffffffffffffffffffffffffff1603610c2c576040517f08c379a0000000000000000000000000000000000000000000000000000000008152600401610c2390612ddf565b60405180910390fd5b80915050919050565b60008073ffffffffffffffffffffffffffffffffffffffff168273ffffffffffffffffffffffffffffffffffffffff1603610ca5576040517f08c379a0000000000000000000000000000000000000000000000000000000008152600401610c9c90612e71565b60405180910390fd5b600360008373ffffffffffffffffffffffffffffffffffffffff1673ffffffffffffffffffffffffffffffffffffffff168152602001908152602001600020549050919050565b6000600a600083815260200190815260200160002060009054906101000a900473ffffffffffffffffffffffffffffffffffffffff169050919050565b606060018054610d3890612aa2565b80601f0160208091040260200160405190810160405280929190818152602001828054610d6490612aa2565b8015610db15780601f10610d8657610100808354040283529160200191610db1565b820191906000526020600020905b815481529060010190602001808311610d9457829003601f168201915b5050505050905090565b610dcd610dc66111ba565b838361197e565b5050565b610de2610ddc6111ba565b836112f2565b610e21576040517f08c379a0000000000000000000000000000000000000000000000000000000008152600401610e1890612d43565b60405180910390fd5b610e2d84848484611aea565b50505050565b60008060008314610e4d57610e48600861127b565b610e58565b610e57600761127b565b5b905080915050919050565b6060610e6e8261116f565b6000600660008481526020019081526020016000208054610e8e90612aa2565b80601f0160208091040260200160405190810160405280929190818152602001828054610eba90612aa2565b8015610f075780601f10610edc57610100808354040283529160200191610f07565b820191906000526020600020905b815481529060010190602001808311610eea57829003601f168201915b505050505090506000610f18611b46565b90506000815103610f2d578192505050610f70565b600082511115610f62578082604051602001610f4a929190612ecd565b60405160208183030381529060405292505050610f70565b610f6b84611b5d565b925050505b919050565b600c60009054906101000a900473ffffffffffffffffffffffffffffffffffffffff1681565b600080610fa8600861127b565b905060005b81811015610fed5783600b60008381526020019081526020016000205403610fda57600192505050610ff4565b8080610fe590612c89565b915050610fad565b5060009150505b919050565b6000600560008473ffffffffffffffffffffffffffffffffffffffff1673ffffffffffffffffffffffffffffffffffffffff16815260200190815260200160002060008373ffffffffffffffffffffffffffffffffffffffff1673ffffffffffffffffffffffffffffffffffffffff16815260200190815260200160002060009054906101000a900460ff16905092915050565b60007f80ac58cd000000000000000000000000000000000000000000000000000000007bffffffffffffffffffffffffffffffffffffffffffffffffffffffff1916827bffffffffffffffffffffffffffffffffffffffffffffffffffffffff1916148061115857507f5b5e139f000000000000000000000000000000000000000000000000000000007bffffffffffffffffffffffffffffffffffffffffffffffffffffffff1916827bffffffffffffffffffffffffffffffffffffffffffffffffffffffff1916145b80611168575061116782611bc5565b5b9050919050565b61117881611c2f565b6111b7576040517f08c379a00000000000000000000000000000000000000000000000000000000081526004016111ae90612ddf565b60405180910390fd5b50565b600033905090565b816004600083815260200190815260200160002060006101000a81548173ffffffffffffffffffffffffffffffffffffffff021916908373ffffffffffffffffffffffffffffffffffffffff160217905550808273ffffffffffffffffffffffffffffffffffffffff1661123583610baf565b73ffffffffffffffffffffffffffffffffffffffff167f8c5be1e5ebec7d5bd14f71427d1e84f3dd0314c0f7b2291e5b200ac8c7c3b92560405160405180910390a45050565b600081600001549050919050565b61129281611c70565b60006006600083815260200190815260200160002080546112b290612aa2565b9050146112d9576006600082815260200190815260200160002060006112d89190612292565b5b50565b6001816000016000828254019250508190555050565b6000806112fe83610baf565b90508073ffffffffffffffffffffffffffffffffffffffff168473ffffffffffffffffffffffffffffffffffffffff161480611340575061133f8185610ff9565b5b8061137e57508373ffffffffffffffffffffffffffffffffffffffff166113668461054d565b73ffffffffffffffffffffffffffffffffffffffff16145b91505092915050565b8273ffffffffffffffffffffffffffffffffffffffff166113a782610baf565b73ffffffffffffffffffffffffffffffffffffffff16146113fd576040517f08c379a00000000000000000000000000000000000000000000000000000000081526004016113f490612f63565b60405180910390fd5b600073ffffffffffffffffffffffffffffffffffffffff168273ffffffffffffffffffffffffffffffffffffffff160361146c576040517f08c379a000000000000000000000000000000000000000000000000000000000815260040161146390612ff5565b60405180910390fd5b6114798383836001611dbe565b8273ffffffffffffffffffffffffffffffffffffffff1661149982610baf565b73ffffffffffffffffffffffffffffffffffffffff16146114ef576040517f08c379a00000000000000000000000000000000000000000000000000000000081526004016114e690612f63565b60405180910390fd5b6004600082815260200190815260200160002060006101000a81549073ffffffffffffffffffffffffffffffffffffffff02191690556001600360008573ffffffffffffffffffffffffffffffffffffffff1673ffffffffffffffffffffffffffffffffffffffff168152602001908152602001600020600082825403925050819055506001600360008473ffffffffffffffffffffffffffffffffffffffff1673ffffffffffffffffffffffffffffffffffffffff16815260200190815260200160002060008282540192505081905550816002600083815260200190815260200160002060006101000a81548173ffffffffffffffffffffffffffffffffffffffff021916908373ffffffffffffffffffffffffffffffffffffffff160217905550808273ffffffffffffffffffffffffffffffffffffffff168473ffffffffffffffffffffffffffffffffffffffff167fddf252ad1be2c89b69c2b068fc378daa952ba7f163c4a11628f55a4df523b3ef60405160405180910390a461167b8383836001611ebb565b505050565b600073ffffffffffffffffffffffffffffffffffffffff168273ffffffffffffffffffffffffffffffffffffffff16036116ef576040517f08c379a00000000000000000000000000000000000000000000000000000000081526004016116e690613061565b60405180910390fd5b6116f881611c2f565b15611738576040517f08c379a000000000000000000000000000000000000000000000000000000000815260040161172f906130cd565b60405180910390fd5b611746600083836001611dbe565b61174f81611c2f565b1561178f576040517f08c379a0000000000000000000000000000000000000000000000000000000008152600401611786906130cd565b60405180910390fd5b6001600360008473ffffffffffffffffffffffffffffffffffffffff1673ffffffffffffffffffffffffffffffffffffffff16815260200190815260200160002060008282540192505081905550816002600083815260200190815260200160002060006101000a81548173ffffffffffffffffffffffffffffffffffffffff021916908373ffffffffffffffffffffffffffffffffffffffff160217905550808273ffffffffffffffffffffffffffffffffffffffff16600073ffffffffffffffffffffffffffffffffffffffff167fddf252ad1be2c89b69c2b068fc378daa952ba7f163c4a11628f55a4df523b3ef60405160405180910390a4611899600083836001611ebb565b5050565b6118a682611c2f565b6118e5576040517f08c379a00000000000000000000000000000000000000000000000000000000081526004016118dc9061315f565b60405180910390fd5b80600660008481526020019081526020016000209081611905919061332b565b507ff8e1a15aba9398e019f0b49df1a4fde98ee17ae345cb5f6b5e2c27f5033e8ce782604051611935919061285b565b60405180910390a15050565b60006002600083815260200190815260200160002060009054906101000a900473ffffffffffffffffffffffffffffffffffffffff169050919050565b8173ffffffffffffffffffffffffffffffffffffffff168373ffffffffffffffffffffffffffffffffffffffff16036119ec576040517f08c379a00000000000000000000000000000000000000000000000000000000081526004016119e390613449565b60405180910390fd5b80600560008573ffffffffffffffffffffffffffffffffffffffff1673ffffffffffffffffffffffffffffffffffffffff16815260200190815260200160002060008473ffffffffffffffffffffffffffffffffffffffff1673ffffffffffffffffffffffffffffffffffffffff16815260200190815260200160002060006101000a81548160ff0219169083151502179055508173ffffffffffffffffffffffffffffffffffffffff168373ffffffffffffffffffffffffffffffffffffffff167f17307eab39ab6107e8899845ad3d59bd9653f200f220920489ca2b5937696c3183604051611add91906123a3565b60405180910390a3505050565b611af5848484611387565b611b0184848484611ec1565b611b40576040517f08c379a0000000000000000000000000000000000000000000000000000000008152600401611b37906134db565b60405180910390fd5b50505050565b606060405180602001604052806000815250905090565b6060611b688261116f565b6000611b72611b46565b90506000815111611b925760405180602001604052806000815250611bbd565b80611b9c84612048565b604051602001611bad929190612ecd565b6040516020818303038152906040525b915050919050565b60007f01ffc9a7000000000000000000000000000000000000000000000000000000007bffffffffffffffffffffffffffffffffffffffffffffffffffffffff1916827bffffffffffffffffffffffffffffffffffffffffffffffffffffffff1916149050919050565b60008073ffffffffffffffffffffffffffffffffffffffff16611c5183611941565b73ffffffffffffffffffffffffffffffffffffffff1614159050919050565b6000611c7b82610baf565b9050611c8b816000846001611dbe565b611c9482610baf565b90506004600083815260200190815260200160002060006101000a81549073ffffffffffffffffffffffffffffffffffffffff02191690556001600360008373ffffffffffffffffffffffffffffffffffffffff1673ffffffffffffffffffffffffffffffffffffffff168152602001908152602001600020600082825403925050819055506002600083815260200190815260200160002060006101000a81549073ffffffffffffffffffffffffffffffffffffffff021916905581600073ffffffffffffffffffffffffffffffffffffffff168273ffffffffffffffffffffffffffffffffffffffff167fddf252ad1be2c89b69c2b068fc378daa952ba7f163c4a11628f55a4df523b3ef60405160405180910390a4611dba816000846001611ebb565b5050565b611dca84848484612116565b600073ffffffffffffffffffffffffffffffffffffffff168473ffffffffffffffffffffffffffffffffffffffff1614158015611e335750600073ffffffffffffffffffffffffffffffffffffffff168373ffffffffffffffffffffffffffffffffffffffff16145b15611eb5576000611e4383610baf565b90503373ffffffffffffffffffffffffffffffffffffffff168173ffffffffffffffffffffffffffffffffffffffff1614611eb3576040517f08c379a0000000000000000000000000000000000000000000000000000000008152600401611eaa9061356d565b60405180910390fd5b505b50505050565b50505050565b6000611ee28473ffffffffffffffffffffffffffffffffffffffff1661211c565b1561203b578373ffffffffffffffffffffffffffffffffffffffff1663150b7a02611f0b6111ba565b8786866040518563ffffffff1660e01b8152600401611f2d94939291906135e2565b6020604051808303816000875af1925050508015611f6957506040513d601f19601f82011682018060405250810190611f669190613643565b60015b611feb573d8060008114611f99576040519150601f19603f3d011682016040523d82523d6000602084013e611f9e565b606091505b506000815103611fe3576040517f08c379a0000000000000000000000000000000000000000000000000000000008152600401611fda906134db565b60405180910390fd5b805181602001fd5b63150b7a0260e01b7bffffffffffffffffffffffffffffffffffffffffffffffffffffffff1916817bffffffffffffffffffffffffffffffffffffffffffffffffffffffff191614915050612040565b600190505b949350505050565b6060600060016120578461213f565b01905060008167ffffffffffffffff811115612076576120756126d8565b5b6040519080825280601f01601f1916602001820160405280156120a85781602001600182028036833780820191505090505b509050600082602001820190505b60011561210b578080600190039150507f3031323334353637383961626364656600000000000000000000000000000000600a86061a8153600a85816120ff576120fe613670565b5b049450600085036120b6575b819350505050919050565b50505050565b6000808273ffffffffffffffffffffffffffffffffffffffff163b119050919050565b600080600090507a184f03e93ff9f4daa797ed6e38ed64bf6a1f010000000000000000831061219d577a184f03e93ff9f4daa797ed6e38ed64bf6a1f010000000000000000838161219357612192613670565b5b0492506040810190505b6d04ee2d6d415b85acef810000000083106121da576d04ee2d6d415b85acef810000000083816121d0576121cf613670565b5b0492506020810190505b662386f26fc10000831061220957662386f26fc1000083816121ff576121fe613670565b5b0492506010810190505b6305f5e1008310612232576305f5e100838161222857612227613670565b5b0492506008810190505b612710831061225757612710838161224d5761224c613670565b5b0492506004810190505b6064831061227a57606483816122705761226f613670565b5b0492506002810190505b600a8310612289576001810190505b80915050919050565b50805461229e90612aa2565b6000825580601f106122b057506122cf565b601f0160209004906000526020600020908101906122ce91906122d2565b5b50565b5b808211156122eb5760008160009055506001016122d3565b5090565b6000604051905090565b600080fd5b600080fd5b60007fffffffff0000000000000000000000000000000000000000000000000000000082169050919050565b61233881612303565b811461234357600080fd5b50565b6000813590506123558161232f565b92915050565b600060208284031215612371576123706122f9565b5b600061237f84828501612346565b91505092915050565b60008115159050919050565b61239d81612388565b82525050565b60006020820190506123b86000830184612394565b92915050565b600081519050919050565b600082825260208201905092915050565b60005b838110156123f85780820151818401526020810190506123dd565b60008484015250505050565b6000601f19601f8301169050919050565b6000612420826123be565b61242a81856123c9565b935061243a8185602086016123da565b61244381612404565b840191505092915050565b600060208201905081810360008301526124688184612415565b905092915050565b6000819050919050565b61248381612470565b811461248e57600080fd5b50565b6000813590506124a08161247a565b92915050565b6000602082840312156124bc576124bb6122f9565b5b60006124ca84828501612491565b91505092915050565b600073ffffffffffffffffffffffffffffffffffffffff82169050919050565b60006124fe826124d3565b9050919050565b61250e816124f3565b82525050565b60006020820190506125296000830184612505565b92915050565b612538816124f3565b811461254357600080fd5b50565b6000813590506125558161252f565b92915050565b60008060408385031215612572576125716122f9565b5b600061258085828601612546565b925050602061259185828601612491565b9150509250929050565b600081519050919050565b600082825260208201905092915050565b6000819050602082019050919050565b6125d081612470565b82525050565b60006125e283836125c7565b60208301905092915050565b6000602082019050919050565b60006126068261259b565b61261081856125a6565b935061261b836125b7565b8060005b8381101561264c57815161263388826125d6565b975061263e836125ee565b92505060018101905061261f565b5085935050505092915050565b6000602082019050818103600083015261267381846125fb565b905092915050565b600080600060608486031215612694576126936122f9565b5b60006126a286828701612546565b93505060206126b386828701612546565b92505060406126c486828701612491565b9150509250925092565b600080fd5b600080fd5b7f4e487b7100000000000000000000000000000000000000000000000000000000600052604160045260246000fd5b61271082612404565b810181811067ffffffffffffffff8211171561272f5761272e6126d8565b5b80604052505050565b60006127426122ef565b905061274e8282612707565b919050565b600067ffffffffffffffff82111561276e5761276d6126d8565b5b61277782612404565b9050602081019050919050565b82818337600083830152505050565b60006127a66127a184612753565b612738565b9050828152602081018484840111156127c2576127c16126d3565b5b6127cd848285612784565b509392505050565b600082601f8301126127ea576127e96126ce565b5b81356127fa848260208601612793565b91505092915050565b600060208284031215612819576128186122f9565b5b600082013567ffffffffffffffff811115612837576128366122fe565b5b612843848285016127d5565b91505092915050565b61285581612470565b82525050565b6000602082019050612870600083018461284c565b92915050565b60006020828403121561288c5761288b6122f9565b5b600061289a84828501612546565b91505092915050565b6128ac81612388565b81146128b757600080fd5b50565b6000813590506128c9816128a3565b92915050565b600080604083850312156128e6576128e56122f9565b5b60006128f485828601612546565b9250506020612905858286016128ba565b9150509250929050565b600067ffffffffffffffff82111561292a576129296126d8565b5b61293382612404565b9050602081019050919050565b600061295361294e8461290f565b612738565b90508281526020810184848401111561296f5761296e6126d3565b5b61297a848285612784565b509392505050565b600082601f830112612997576129966126ce565b5b81356129a7848260208601612940565b91505092915050565b600080600080608085870312156129ca576129c96122f9565b5b60006129d887828801612546565b94505060206129e987828801612546565b93505060406129fa87828801612491565b925050606085013567ffffffffffffffff811115612a1b57612a1a6122fe565b5b612a2787828801612982565b91505092959194509250565b60008060408385031215612a4a57612a496122f9565b5b6000612a5885828601612546565b9250506020612a6985828601612546565b9150509250929050565b7f4e487b7100000000000000000000000000000000000000000000000000000000600052602260045260246000fd5b60006002820490506001821680612aba57607f821691505b602082108103612acd57612acc612a73565b5b50919050565b7f4552433732313a20617070726f76616c20746f2063757272656e74206f776e6560008201527f7200000000000000000000000000000000000000000000000000000000000000602082015250565b6000612b2f6021836123c9565b9150612b3a82612ad3565b604082019050919050565b60006020820190508181036000830152612b5e81612b22565b9050919050565b7f4552433732313a20617070726f76652063616c6c6572206973206e6f7420746f60008201527f6b656e206f776e6572206f7220617070726f76656420666f7220616c6c000000602082015250565b6000612bc1603d836123c9565b9150612bcc82612b65565b604082019050919050565b60006020820190508181036000830152612bf081612bb4565b9050919050565b7f4e487b7100000000000000000000000000000000000000000000000000000000600052601160045260246000fd5b6000612c3182612470565b9150612c3c83612470565b9250828201905080821115612c5457612c53612bf7565b5b92915050565b7f4e487b7100000000000000000000000000000000000000000000000000000000600052603260045260246000fd5b6000612c9482612470565b91507fffffffffffffffffffffffffffffffffffffffffffffffffffffffffffffffff8203612cc657612cc5612bf7565b5b600182019050919050565b7f4552433732313a2063616c6c6572206973206e6f7420746f6b656e206f776e6560008201527f72206f7220617070726f76656400000000000000000000000000000000000000602082015250565b6000612d2d602d836123c9565b9150612d3882612cd1565b604082019050919050565b60006020820190508181036000830152612d5c81612d20565b9050919050565b60006040820190508181036000830152612d7d8185612415565b9050612d8c6020830184612505565b9392505050565b7f4552433732313a20696e76616c696420746f6b656e2049440000000000000000600082015250565b6000612dc96018836123c9565b9150612dd482612d93565b602082019050919050565b60006020820190508181036000830152612df881612dbc565b9050919050565b7f4552433732313a2061646472657373207a65726f206973206e6f74206120766160008201527f6c6964206f776e65720000000000000000000000000000000000000000000000602082015250565b6000612e5b6029836123c9565b9150612e6682612dff565b604082019050919050565b60006020820190508181036000830152612e8a81612e4e565b9050919050565b600081905092915050565b6000612ea7826123be565b612eb18185612e91565b9350612ec18185602086016123da565b80840191505092915050565b6000612ed98285612e9c565b9150612ee58284612e9c565b91508190509392505050565b7f4552433732313a207472616e736665722066726f6d20696e636f72726563742060008201527f6f776e6572000000000000000000000000000000000000000000000000000000602082015250565b6000612f4d6025836123c9565b9150612f5882612ef1565b604082019050919050565b60006020820190508181036000830152612f7c81612f40565b9050919050565b7f4552433732313a207472616e7366657220746f20746865207a65726f2061646460008201527f7265737300000000000000000000000000000000000000000000000000000000602082015250565b6000612fdf6024836123c9565b9150612fea82612f83565b604082019050919050565b6000602082019050818103600083015261300e81612fd2565b9050919050565b7f4552433732313a206d696e7420746f20746865207a65726f2061646472657373600082015250565b600061304b6020836123c9565b915061305682613015565b602082019050919050565b6000602082019050818103600083015261307a8161303e565b9050919050565b7f4552433732313a20746f6b656e20616c7265616479206d696e74656400000000600082015250565b60006130b7601c836123c9565b91506130c282613081565b602082019050919050565b600060208201905081810360008301526130e6816130aa565b9050919050565b7f45524337323155524953746f726167653a2055524920736574206f66206e6f6e60008201527f6578697374656e7420746f6b656e000000000000000000000000000000000000602082015250565b6000613149602e836123c9565b9150613154826130ed565b604082019050919050565b600060208201905081810360008301526131788161313c565b9050919050565b60008190508160005260206000209050919050565b60006020601f8301049050919050565b600082821b905092915050565b6000600883026131e17fffffffffffffffffffffffffffffffffffffffffffffffffffffffffffffffff826131a4565b6131eb86836131a4565b95508019841693508086168417925050509392505050565b6000819050919050565b600061322861322361321e84612470565b613203565b612470565b9050919050565b6000819050919050565b6132428361320d565b61325661324e8261322f565b8484546131b1565b825550505050565b600090565b61326b61325e565b613276818484613239565b505050565b5b8181101561329a5761328f600082613263565b60018101905061327c565b5050565b601f8211156132df576132b08161317f565b6132b984613194565b810160208510156132c8578190505b6132dc6132d485613194565b83018261327b565b50505b505050565b600082821c905092915050565b6000613302600019846008026132e4565b1980831691505092915050565b600061331b83836132f1565b9150826002028217905092915050565b613334826123be565b67ffffffffffffffff81111561334d5761334c6126d8565b5b6133578254612aa2565b61336282828561329e565b600060209050601f8311600181146133955760008415613383578287015190505b61338d858261330f565b8655506133f5565b601f1984166133a38661317f565b60005b828110156133cb578489015182556001820191506020850194506020810190506133a6565b868310156133e857848901516133e4601f8916826132f1565b8355505b6001600288020188555050505b505050505050565b7f4552433732313a20617070726f766520746f2063616c6c657200000000000000600082015250565b60006134336019836123c9565b915061343e826133fd565b602082019050919050565b6000602082019050818103600083015261346281613426565b9050919050565b7f4552433732313a207472616e7366657220746f206e6f6e20455243373231526560008201527f63656976657220696d706c656d656e7465720000000000000000000000000000602082015250565b60006134c56032836123c9565b91506134d082613469565b604082019050919050565b600060208201905081810360008301526134f4816134b8565b9050919050565b7f4f6e6c7920746865206f776e6572206f66204e46542063616e206275726e206960008201527f7421000000000000000000000000000000000000000000000000000000000000602082015250565b60006135576022836123c9565b9150613562826134fb565b604082019050919050565b600060208201905081810360008301526135868161354a565b9050919050565b600081519050919050565b600082825260208201905092915050565b60006135b48261358d565b6135be8185613598565b93506135ce8185602086016123da565b6135d781612404565b840191505092915050565b60006080820190506135f76000830187612505565b6136046020830186612505565b613611604083018561284c565b818103606083015261362381846135a9565b905095945050505050565b60008151905061363d8161232f565b92915050565b600060208284031215613659576136586122f9565b5b60006136678482850161362e565b91505092915050565b7f4e487b7100000000000000000000000000000000000000000000000000000000600052601260045260246000fdfea2646970667358221220e5101b35b18a1fd05013591bf5f9ff7ad74257c689d4f8e2d24194d0cb2220ef64736f6c63430008120033",
  "linkReferences": {},
  "deployedLinkReferences": {}
}