{
  "_format": "hh-sol-artifact-1",
  "contractName": "NFT_HD",
  "sourceName": "contracts/NFT_HD.sol",
  "abi": [
    {
      "inputs": [
        {
          "internalType": "address",
          "name": "_marketplaceAddress",
          "type": "address"
        }
      ],
      "stateMutability": "nonpayable",
      "type": "constructor"
    },
    {
      "anonymous": false,
      "inputs": [
        {
          "indexed": true,
          "internalType": "address",
          "name": "owner",
          "type": "address"
        },
        {
          "indexed": true,
          "internalType": "address",
          "name": "approved",
          "type": "address"
        },
        {
          "indexed": true,
          "internalType": "uint256",
          "name": "tokenId",
          "type": "uint256"
        }
      ],
      "name": "Approval",
      "type": "event"
    },
    {
      "anonymous": false,
      "inputs": [
        {
          "indexed": true,
          "internalType": "address",
          "name": "owner",
          "type": "address"
        },
        {
          "indexed": true,
          "internalType": "address",
          "name": "operator",
          "type": "address"
        },
        {
          "indexed": false,
          "internalType": "bool",
          "name": "approved",
          "type": "bool"
        }
      ],
      "name": "ApprovalForAll",
      "type": "event"
    },
    {
      "anonymous": false,
      "inputs": [
        {
          "indexed": false,
          "internalType": "uint256",
          "name": "_fromTokenId",
          "type": "uint256"
        },
        {
          "indexed": false,
          "internalType": "uint256",
          "name": "_toTokenId",
          "type": "uint256"
        }
      ],
      "name": "BatchMetadataUpdate",
      "type": "event"
    },
    {
      "anonymous": false,
      "inputs": [
        {
          "indexed": false,
          "internalType": "uint256",
          "name": "_tokenId",
          "type": "uint256"
        }
      ],
      "name": "MetadataUpdate",
      "type": "event"
    },
    {
      "anonymous": false,
      "inputs": [
        {
          "indexed": true,
          "internalType": "uint256",
          "name": "tokenId",
          "type": "uint256"
        },
        {
          "indexed": false,
          "internalType": "string",
          "name": "tokenURI",
          "type": "string"
        },
        {
          "indexed": false,
          "internalType": "address",
          "name": "marketplaceAddress",
          "type": "address"
        }
      ],
      "name": "TokenMinted",
      "type": "event"
    },
    {
      "anonymous": false,
      "inputs": [
        {
          "indexed": true,
          "internalType": "address",
          "name": "from",
          "type": "address"
        },
        {
          "indexed": true,
          "internalType": "address",
          "name": "to",
          "type": "address"
        },
        {
          "indexed": true,
          "internalType": "uint256",
          "name": "tokenId",
          "type": "uint256"
        }
      ],
      "name": "Transfer",
      "type": "event"
    },
    {
      "inputs": [
        {
          "internalType": "string",
          "name": "tokenURI",
          "type": "string"
        }
      ],
      "name": "WhistlerTurnerGainsboroughReynoldsConstable",
      "outputs": [
        {
          "internalType": "uint256",
          "name": "",
          "type": "uint256"
        }
      ],
      "stateMutability": "nonpayable",
      "type": "function"
    },
    {
      "inputs": [
        {
          "internalType": "address",
          "name": "to",
          "type": "address"
        },
        {
          "internalType": "uint256",
          "name": "tokenId",
          "type": "uint256"
        }
      ],
      "name": "approve",
      "outputs": [],
      "stateMutability": "nonpayable",
      "type": "function"
    },
    {
      "inputs": [
        {
          "internalType": "address",
          "name": "owner",
          "type": "address"
        }
      ],
      "name": "balanceOf",
      "outputs": [
        {
          "internalType": "uint256",
          "name": "",
          "type": "uint256"
        }
      ],
      "stateMutability": "view",
      "type": "function"
    },
    {
      "inputs": [
        {
          "internalType": "uint256",
          "name": "tokenId",
          "type": "uint256"
        }
      ],
      "name": "burner",
      "outputs": [],
      "stateMutability": "nonpayable",
      "type": "function"
    },
    {
      "inputs": [],
      "name": "contractOwner",
      "outputs": [
        {
          "internalType": "address",
          "name": "",
          "type": "address"
        }
      ],
      "stateMutability": "view",
      "type": "function"
    },
    {
      "inputs": [
        {
          "internalType": "uint256",
          "name": "tokenId",
          "type": "uint256"
        }
      ],
      "name": "getApproved",
      "outputs": [
        {
          "internalType": "address",
          "name": "",
          "type": "address"
        }
      ],
      "stateMutability": "view",
      "type": "function"
    },
    {
      "inputs": [
        {
          "internalType": "uint256",
          "name": "tokenId",
          "type": "uint256"
        }
      ],
      "name": "getTokenCreatorById",
      "outputs": [
        {
          "internalType": "address",
          "name": "",
          "type": "address"
        }
      ],
      "stateMutability": "view",
      "type": "function"
    },
    {
      "inputs": [
        {
          "internalType": "address",
          "name": "owner",
          "type": "address"
        },
        {
          "internalType": "address",
          "name": "operator",
          "type": "address"
        }
      ],
      "name": "isApprovedForAll",
      "outputs": [
        {
          "internalType": "bool",
          "name": "",
          "type": "bool"
        }
      ],
      "stateMutability": "view",
      "type": "function"
    },
    {
      "inputs": [
        {
          "internalType": "uint256",
          "name": "tokenId",
          "type": "uint256"
        }
      ],
      "name": "isTokenBurnedSuper",
      "outputs": [
        {
          "internalType": "bool",
          "name": "",
          "type": "bool"
        }
      ],
      "stateMutability": "view",
      "type": "function"
    },
    {
      "inputs": [],
      "name": "name",
      "outputs": [
        {
          "internalType": "string",
          "name": "",
          "type": "string"
        }
      ],
      "stateMutability": "view",
      "type": "function"
    },
    {
      "inputs": [
        {
          "internalType": "uint256",
          "name": "typeId",
          "type": "uint256"
        }
      ],
      "name": "numberOfTokens",
      "outputs": [
        {
          "internalType": "uint256",
          "name": "",
          "type": "uint256"
        }
      ],
      "stateMutability": "view",
      "type": "function"
    },
    {
      "inputs": [
        {
          "internalType": "uint256",
          "name": "tokenId",
          "type": "uint256"
        }
      ],
      "name": "ownerOf",
      "outputs": [
        {
          "internalType": "address",
          "name": "",
          "type": "address"
        }
      ],
      "stateMutability": "view",
      "type": "function"
    },
    {
      "inputs": [
        {
          "internalType": "address",
          "name": "from",
          "type": "address"
        },
        {
          "internalType": "address",
          "name": "to",
          "type": "address"
        },
        {
          "internalType": "uint256",
          "name": "tokenId",
          "type": "uint256"
        }
      ],
      "name": "safeTransferFrom",
      "outputs": [],
      "stateMutability": "nonpayable",
      "type": "function"
    },
    {
      "inputs": [
        {
          "internalType": "address",
          "name": "from",
          "type": "address"
        },
        {
          "internalType": "address",
          "name": "to",
          "type": "address"
        },
        {
          "internalType": "uint256",
          "name": "tokenId",
          "type": "uint256"
        },
        {
          "internalType": "bytes",
          "name": "data",
          "type": "bytes"
        }
      ],
      "name": "safeTransferFrom",
      "outputs": [],
      "stateMutability": "nonpayable",
      "type": "function"
    },
    {
      "inputs": [
        {
          "internalType": "address",
          "name": "operator",
          "type": "address"
        },
        {
          "internalType": "bool",
          "name": "approved",
          "type": "bool"
        }
      ],
      "name": "setApprovalForAll",
      "outputs": [],
      "stateMutability": "nonpayable",
      "type": "function"
    },
    {
      "inputs": [
        {
          "internalType": "bytes4",
          "name": "interfaceId",
          "type": "bytes4"
        }
      ],
      "name": "supportsInterface",
      "outputs": [
        {
          "internalType": "bool",
          "name": "",
          "type": "bool"
        }
      ],
      "stateMutability": "view",
      "type": "function"
    },
    {
      "inputs": [],
      "name": "symbol",
      "outputs": [
        {
          "internalType": "string",
          "name": "",
          "type": "string"
        }
      ],
      "stateMutability": "view",
      "type": "function"
    },
    {
      "inputs": [
        {
          "internalType": "uint256",
          "name": "tokenId",
          "type": "uint256"
        }
      ],
      "name": "tokenURI",
      "outputs": [
        {
          "internalType": "string",
          "name": "",
          "type": "string"
        }
      ],
      "stateMutability": "view",
      "type": "function"
    },
    {
      "inputs": [
        {
          "internalType": "address",
          "name": "from",
          "type": "address"
        },
        {
          "internalType": "address",
          "name": "to",
          "type": "address"
        },
        {
          "internalType": "uint256",
          "name": "tokenId",
          "type": "uint256"
        }
      ],
      "name": "transferFrom",
      "outputs": [],
      "stateMutability": "nonpayable",
      "type": "function"
    }
  ],
  "bytecode": "0x60806040523480156200001157600080fd5b5060405162003769380380620037698339818101604052810190620000379190620001bc565b6040518060400160405280600e81526020017f4861707079446f7820546f6b656e0000000000000000000000000000000000008152506040518060400160405280600381526020017f48445400000000000000000000000000000000000000000000000000000000008152508160009081620000b4919062000468565b508060019081620000c6919062000468565b50505080600960006101000a81548173ffffffffffffffffffffffffffffffffffffffff021916908373ffffffffffffffffffffffffffffffffffffffff16021790555033600c60006101000a81548173ffffffffffffffffffffffffffffffffffffffff021916908373ffffffffffffffffffffffffffffffffffffffff160217905550506200054f565b600080fd5b600073ffffffffffffffffffffffffffffffffffffffff82169050919050565b6000620001848262000157565b9050919050565b620001968162000177565b8114620001a257600080fd5b50565b600081519050620001b6816200018b565b92915050565b600060208284031215620001d557620001d462000152565b5b6000620001e584828501620001a5565b91505092915050565b600081519050919050565b7f4e487b7100000000000000000000000000000000000000000000000000000000600052604160045260246000fd5b7f4e487b7100000000000000000000000000000000000000000000000000000000600052602260045260246000fd5b600060028204905060018216806200027057607f821691505b60208210810362000286576200028562000228565b5b50919050565b60008190508160005260206000209050919050565b60006020601f8301049050919050565b600082821b905092915050565b600060088302620002f07fffffffffffffffffffffffffffffffffffffffffffffffffffffffffffffffff82620002b1565b620002fc8683620002b1565b95508019841693508086168417925050509392505050565b6000819050919050565b6000819050919050565b600062000349620003436200033d8462000314565b6200031e565b62000314565b9050919050565b6000819050919050565b620003658362000328565b6200037d620003748262000350565b848454620002be565b825550505050565b600090565b6200039462000385565b620003a18184846200035a565b505050565b5b81811015620003c957620003bd6000826200038a565b600181019050620003a7565b5050565b601f8211156200041857620003e2816200028c565b620003ed84620002a1565b81016020851015620003fd578190505b620004156200040c85620002a1565b830182620003a6565b50505b505050565b600082821c905092915050565b60006200043d600019846008026200041d565b1980831691505092915050565b60006200045883836200042a565b9150826002028217905092915050565b6200047382620001ee565b67ffffffffffffffff8111156200048f576200048e620001f9565b5b6200049b825462000257565b620004a8828285620003cd565b600060209050601f831160018114620004e05760008415620004cb578287015190505b620004d785826200044a565b86555062000547565b601f198416620004f0866200028c565b60005b828110156200051a57848901518255600182019150602085019450602081019050620004f3565b868310156200053a578489015162000536601f8916826200042a565b8355505b6001600288020188555050505b505050505050565b61320a806200055f6000396000f3fe608060405234801561001057600080fd5b50600436106101215760003560e01c80636352211e116100ad578063b88d4fde11610071578063b88d4fde1461033e578063b8c2f9771461035a578063c87b56dd1461038a578063ce606ee0146103ba578063e985e9c5146103d857610121565b80636352211e1461027457806370a08231146102a4578063867d3397146102d457806395d89b4114610304578063a22cb4651461032257610121565b8063095ea7b3116100f4578063095ea7b3146101d457806311db8d1b146101f057806323b872dd1461020c57806342842e0e14610228578063623c3b731461024457610121565b806301ffc9a714610126578063046277001461015657806306fdde0314610186578063081812fc146101a4575b600080fd5b610140600480360381019061013b9190611fd3565b610408565b60405161014d919061201b565b60405180910390f35b610170600480360381019061016b919061217c565b610469565b60405161017d91906121de565b60405180910390f35b61018e61057b565b60405161019b9190612278565b60405180910390f35b6101be60048036038101906101b991906122c6565b61060d565b6040516101cb9190612334565b60405180910390f35b6101ee60048036038101906101e9919061237b565b610653565b005b61020a600480360381019061020591906122c6565b61076a565b005b610226600480360381019061022191906123bb565b6107a7565b005b610242600480360381019061023d91906123bb565b610807565b005b61025e600480360381019061025991906122c6565b610827565b60405161026b919061201b565b60405180910390f35b61028e600480360381019061028991906122c6565b610885565b60405161029b9190612334565b60405180910390f35b6102be60048036038101906102b9919061240e565b61090b565b6040516102cb91906121de565b60405180910390f35b6102ee60048036038101906102e991906122c6565b6109c2565b6040516102fb9190612334565b60405180910390f35b61030c6109ff565b6040516103199190612278565b60405180910390f35b61033c60048036038101906103379190612467565b610a91565b005b61035860048036038101906103539190612548565b610aa7565b005b610374600480360381019061036f91906122c6565b610b09565b60405161038191906121de565b60405180910390f35b6103a4600480360381019061039f91906122c6565b610b39565b6040516103b19190612278565b60405180910390f35b6103c2610c4b565b6040516103cf9190612334565b60405180910390f35b6103f260048036038101906103ed91906125cb565b610c71565b6040516103ff919061201b565b60405180910390f35b6000634906490660e01b7bffffffffffffffffffffffffffffffffffffffffffffffffffffffff1916827bffffffffffffffffffffffffffffffffffffffffffffffffffffffff19161480610462575061046182610d05565b5b9050919050565b60006104756007610de7565b60006104816007610dfd565b905061048d3382610e0b565b33600a600083815260200190815260200160002060006101000a81548173ffffffffffffffffffffffffffffffffffffffff021916908373ffffffffffffffffffffffffffffffffffffffff1602179055506104e98184611028565b610516600960009054906101000a900473ffffffffffffffffffffffffffffffffffffffff166001610a91565b807f9ef9d09a98563c827f651a028105395cc17f94ef23eb26b70d241439386a62f484600960009054906101000a900473ffffffffffffffffffffffffffffffffffffffff1660405161056a92919061260b565b60405180910390a280915050919050565b60606000805461058a9061266a565b80601f01602080910402602001604051908101604052809291908181526020018280546105b69061266a565b80156106035780601f106105d857610100808354040283529160200191610603565b820191906000526020600020905b8154815290600101906020018083116105e657829003601f168201915b5050505050905090565b6000610618826110cc565b6004600083815260200190815260200160002060009054906101000a900473ffffffffffffffffffffffffffffffffffffffff169050919050565b600061065e82610885565b90508073ffffffffffffffffffffffffffffffffffffffff168373ffffffffffffffffffffffffffffffffffffffff16036106ce576040517f08c379a00000000000000000000000000000000000000000000000000000000081526004016106c59061270d565b60405180910390fd5b8073ffffffffffffffffffffffffffffffffffffffff166106ed611117565b73ffffffffffffffffffffffffffffffffffffffff16148061071c575061071b81610716611117565b610c71565b5b61075b576040517f08c379a00000000000000000000000000000000000000000000000000000000081526004016107529061279f565b60405180910390fd5b610765838361111f565b505050565b610773816111d8565b600061077f6008610dfd565b905061078b6008610de7565b81600b6000838152602001908152602001600020819055505050565b6107b86107b2611117565b8261122b565b6107f7576040517f08c379a00000000000000000000000000000000000000000000000000000000081526004016107ee90612831565b60405180910390fd5b6108028383836112c0565b505050565b61082283838360405180602001604052806000815250610aa7565b505050565b6000806108346008610dfd565b905060005b818110156108795783600b6000838152602001908152602001600020540361086657600192505050610880565b808061087190612880565b915050610839565b5060009150505b919050565b600080610891836115b9565b9050600073ffffffffffffffffffffffffffffffffffffffff168173ffffffffffffffffffffffffffffffffffffffff1603610902576040517f08c379a00000000000000000000000000000000000000000000000000000000081526004016108f990612914565b60405180910390fd5b80915050919050565b60008073ffffffffffffffffffffffffffffffffffffffff168273ffffffffffffffffffffffffffffffffffffffff160361097b576040517f08c379a0000000000000000000000000000000000000000000000000000000008152600401610972906129a6565b60405180910390fd5b600360008373ffffffffffffffffffffffffffffffffffffffff1673ffffffffffffffffffffffffffffffffffffffff168152602001908152602001600020549050919050565b6000600a600083815260200190815260200160002060009054906101000a900473ffffffffffffffffffffffffffffffffffffffff169050919050565b606060018054610a0e9061266a565b80601f0160208091040260200160405190810160405280929190818152602001828054610a3a9061266a565b8015610a875780601f10610a5c57610100808354040283529160200191610a87565b820191906000526020600020905b815481529060010190602001808311610a6a57829003601f168201915b5050505050905090565b610aa3610a9c611117565b83836115f6565b5050565b610ab8610ab2611117565b8361122b565b610af7576040517f08c379a0000000000000000000000000000000000000000000000000000000008152600401610aee90612831565b60405180910390fd5b610b0384848484611762565b50505050565b60008060008314610b2357610b1e6008610dfd565b610b2e565b610b2d6007610dfd565b5b905080915050919050565b6060610b44826110cc565b6000600660008481526020019081526020016000208054610b649061266a565b80601f0160208091040260200160405190810160405280929190818152602001828054610b909061266a565b8015610bdd5780601f10610bb257610100808354040283529160200191610bdd565b820191906000526020600020905b815481529060010190602001808311610bc057829003601f168201915b505050505090506000610bee6117be565b90506000815103610c03578192505050610c46565b600082511115610c38578082604051602001610c20929190612a02565b60405160208183030381529060405292505050610c46565b610c41846117d5565b925050505b919050565b600c60009054906101000a900473ffffffffffffffffffffffffffffffffffffffff1681565b6000600560008473ffffffffffffffffffffffffffffffffffffffff1673ffffffffffffffffffffffffffffffffffffffff16815260200190815260200160002060008373ffffffffffffffffffffffffffffffffffffffff1673ffffffffffffffffffffffffffffffffffffffff16815260200190815260200160002060009054906101000a900460ff16905092915050565b60007f80ac58cd000000000000000000000000000000000000000000000000000000007bffffffffffffffffffffffffffffffffffffffffffffffffffffffff1916827bffffffffffffffffffffffffffffffffffffffffffffffffffffffff19161480610dd057507f5b5e139f000000000000000000000000000000000000000000000000000000007bffffffffffffffffffffffffffffffffffffffffffffffffffffffff1916827bffffffffffffffffffffffffffffffffffffffffffffffffffffffff1916145b80610de05750610ddf8261183d565b5b9050919050565b6001816000016000828254019250508190555050565b600081600001549050919050565b600073ffffffffffffffffffffffffffffffffffffffff168273ffffffffffffffffffffffffffffffffffffffff1603610e7a576040517f08c379a0000000000000000000000000000000000000000000000000000000008152600401610e7190612a72565b60405180910390fd5b610e83816118a7565b15610ec3576040517f08c379a0000000000000000000000000000000000000000000000000000000008152600401610eba90612ade565b60405180910390fd5b610ed16000838360016118e8565b610eda816118a7565b15610f1a576040517f08c379a0000000000000000000000000000000000000000000000000000000008152600401610f1190612ade565b60405180910390fd5b6001600360008473ffffffffffffffffffffffffffffffffffffffff1673ffffffffffffffffffffffffffffffffffffffff16815260200190815260200160002060008282540192505081905550816002600083815260200190815260200160002060006101000a81548173ffffffffffffffffffffffffffffffffffffffff021916908373ffffffffffffffffffffffffffffffffffffffff160217905550808273ffffffffffffffffffffffffffffffffffffffff16600073ffffffffffffffffffffffffffffffffffffffff167fddf252ad1be2c89b69c2b068fc378daa952ba7f163c4a11628f55a4df523b3ef60405160405180910390a46110246000838360016119e5565b5050565b611031826118a7565b611070576040517f08c379a000000000000000000000000000000000000000000000000000000000815260040161106790612b70565b60405180910390fd5b806006600084815260200190815260200160002090816110909190612d3c565b507ff8e1a15aba9398e019f0b49df1a4fde98ee17ae345cb5f6b5e2c27f5033e8ce7826040516110c091906121de565b60405180910390a15050565b6110d5816118a7565b611114576040517f08c379a000000000000000000000000000000000000000000000000000000000815260040161110b90612914565b60405180910390fd5b50565b600033905090565b816004600083815260200190815260200160002060006101000a81548173ffffffffffffffffffffffffffffffffffffffff021916908373ffffffffffffffffffffffffffffffffffffffff160217905550808273ffffffffffffffffffffffffffffffffffffffff1661119283610885565b73ffffffffffffffffffffffffffffffffffffffff167f8c5be1e5ebec7d5bd14f71427d1e84f3dd0314c0f7b2291e5b200ac8c7c3b92560405160405180910390a45050565b6111e1816119eb565b60006006600083815260200190815260200160002080546112019061266a565b905014611228576006600082815260200190815260200160002060006112279190611f0a565b5b50565b60008061123783610885565b90508073ffffffffffffffffffffffffffffffffffffffff168473ffffffffffffffffffffffffffffffffffffffff16148061127957506112788185610c71565b5b806112b757508373ffffffffffffffffffffffffffffffffffffffff1661129f8461060d565b73ffffffffffffffffffffffffffffffffffffffff16145b91505092915050565b8273ffffffffffffffffffffffffffffffffffffffff166112e082610885565b73ffffffffffffffffffffffffffffffffffffffff1614611336576040517f08c379a000000000000000000000000000000000000000000000000000000000815260040161132d90612e80565b60405180910390fd5b600073ffffffffffffffffffffffffffffffffffffffff168273ffffffffffffffffffffffffffffffffffffffff16036113a5576040517f08c379a000000000000000000000000000000000000000000000000000000000815260040161139c90612f12565b60405180910390fd5b6113b283838360016118e8565b8273ffffffffffffffffffffffffffffffffffffffff166113d282610885565b73ffffffffffffffffffffffffffffffffffffffff1614611428576040517f08c379a000000000000000000000000000000000000000000000000000000000815260040161141f90612e80565b60405180910390fd5b6004600082815260200190815260200160002060006101000a81549073ffffffffffffffffffffffffffffffffffffffff02191690556001600360008573ffffffffffffffffffffffffffffffffffffffff1673ffffffffffffffffffffffffffffffffffffffff168152602001908152602001600020600082825403925050819055506001600360008473ffffffffffffffffffffffffffffffffffffffff1673ffffffffffffffffffffffffffffffffffffffff16815260200190815260200160002060008282540192505081905550816002600083815260200190815260200160002060006101000a81548173ffffffffffffffffffffffffffffffffffffffff021916908373ffffffffffffffffffffffffffffffffffffffff160217905550808273ffffffffffffffffffffffffffffffffffffffff168473ffffffffffffffffffffffffffffffffffffffff167fddf252ad1be2c89b69c2b068fc378daa952ba7f163c4a11628f55a4df523b3ef60405160405180910390a46115b483838360016119e5565b505050565b60006002600083815260200190815260200160002060009054906101000a900473ffffffffffffffffffffffffffffffffffffffff169050919050565b8173ffffffffffffffffffffffffffffffffffffffff168373ffffffffffffffffffffffffffffffffffffffff1603611664576040517f08c379a000000000000000000000000000000000000000000000000000000000815260040161165b90612f7e565b60405180910390fd5b80600560008573ffffffffffffffffffffffffffffffffffffffff1673ffffffffffffffffffffffffffffffffffffffff16815260200190815260200160002060008473ffffffffffffffffffffffffffffffffffffffff1673ffffffffffffffffffffffffffffffffffffffff16815260200190815260200160002060006101000a81548160ff0219169083151502179055508173ffffffffffffffffffffffffffffffffffffffff168373ffffffffffffffffffffffffffffffffffffffff167f17307eab39ab6107e8899845ad3d59bd9653f200f220920489ca2b5937696c3183604051611755919061201b565b60405180910390a3505050565b61176d8484846112c0565b61177984848484611b39565b6117b8576040517f08c379a00000000000000000000000000000000000000000000000000000000081526004016117af90613010565b60405180910390fd5b50505050565b606060405180602001604052806000815250905090565b60606117e0826110cc565b60006117ea6117be565b9050600081511161180a5760405180602001604052806000815250611835565b8061181484611cc0565b604051602001611825929190612a02565b6040516020818303038152906040525b915050919050565b60007f01ffc9a7000000000000000000000000000000000000000000000000000000007bffffffffffffffffffffffffffffffffffffffffffffffffffffffff1916827bffffffffffffffffffffffffffffffffffffffffffffffffffffffff1916149050919050565b60008073ffffffffffffffffffffffffffffffffffffffff166118c9836115b9565b73ffffffffffffffffffffffffffffffffffffffff1614159050919050565b6118f484848484611d8e565b600073ffffffffffffffffffffffffffffffffffffffff168473ffffffffffffffffffffffffffffffffffffffff161415801561195d5750600073ffffffffffffffffffffffffffffffffffffffff168373ffffffffffffffffffffffffffffffffffffffff16145b156119df57600061196d83610885565b90503373ffffffffffffffffffffffffffffffffffffffff168173ffffffffffffffffffffffffffffffffffffffff16146119dd576040517f08c379a00000000000000000000000000000000000000000000000000000000081526004016119d4906130a2565b60405180910390fd5b505b50505050565b50505050565b60006119f682610885565b9050611a068160008460016118e8565b611a0f82610885565b90506004600083815260200190815260200160002060006101000a81549073ffffffffffffffffffffffffffffffffffffffff02191690556001600360008373ffffffffffffffffffffffffffffffffffffffff1673ffffffffffffffffffffffffffffffffffffffff168152602001908152602001600020600082825403925050819055506002600083815260200190815260200160002060006101000a81549073ffffffffffffffffffffffffffffffffffffffff021916905581600073ffffffffffffffffffffffffffffffffffffffff168273ffffffffffffffffffffffffffffffffffffffff167fddf252ad1be2c89b69c2b068fc378daa952ba7f163c4a11628f55a4df523b3ef60405160405180910390a4611b358160008460016119e5565b5050565b6000611b5a8473ffffffffffffffffffffffffffffffffffffffff16611d94565b15611cb3578373ffffffffffffffffffffffffffffffffffffffff1663150b7a02611b83611117565b8786866040518563ffffffff1660e01b8152600401611ba59493929190613117565b6020604051808303816000875af1925050508015611be157506040513d601f19601f82011682018060405250810190611bde9190613178565b60015b611c63573d8060008114611c11576040519150601f19603f3d011682016040523d82523d6000602084013e611c16565b606091505b506000815103611c5b576040517f08c379a0000000000000000000000000000000000000000000000000000000008152600401611c5290613010565b60405180910390fd5b805181602001fd5b63150b7a0260e01b7bffffffffffffffffffffffffffffffffffffffffffffffffffffffff1916817bffffffffffffffffffffffffffffffffffffffffffffffffffffffff191614915050611cb8565b600190505b949350505050565b606060006001611ccf84611db7565b01905060008167ffffffffffffffff811115611cee57611ced612051565b5b6040519080825280601f01601f191660200182016040528015611d205781602001600182028036833780820191505090505b509050600082602001820190505b600115611d83578080600190039150507f3031323334353637383961626364656600000000000000000000000000000000600a86061a8153600a8581611d7757611d766131a5565b5b04945060008503611d2e575b819350505050919050565b50505050565b6000808273ffffffffffffffffffffffffffffffffffffffff163b119050919050565b600080600090507a184f03e93ff9f4daa797ed6e38ed64bf6a1f0100000000000000008310611e15577a184f03e93ff9f4daa797ed6e38ed64bf6a1f0100000000000000008381611e0b57611e0a6131a5565b5b0492506040810190505b6d04ee2d6d415b85acef81000000008310611e52576d04ee2d6d415b85acef81000000008381611e4857611e476131a5565b5b0492506020810190505b662386f26fc100008310611e8157662386f26fc100008381611e7757611e766131a5565b5b0492506010810190505b6305f5e1008310611eaa576305f5e1008381611ea057611e9f6131a5565b5b0492506008810190505b6127108310611ecf576127108381611ec557611ec46131a5565b5b0492506004810190505b60648310611ef25760648381611ee857611ee76131a5565b5b0492506002810190505b600a8310611f01576001810190505b80915050919050565b508054611f169061266a565b6000825580601f10611f285750611f47565b601f016020900490600052602060002090810190611f469190611f4a565b5b50565b5b80821115611f63576000816000905550600101611f4b565b5090565b6000604051905090565b600080fd5b600080fd5b60007fffffffff0000000000000000000000000000000000000000000000000000000082169050919050565b611fb081611f7b565b8114611fbb57600080fd5b50565b600081359050611fcd81611fa7565b92915050565b600060208284031215611fe957611fe8611f71565b5b6000611ff784828501611fbe565b91505092915050565b60008115159050919050565b61201581612000565b82525050565b6000602082019050612030600083018461200c565b92915050565b600080fd5b600080fd5b6000601f19601f8301169050919050565b7f4e487b7100000000000000000000000000000000000000000000000000000000600052604160045260246000fd5b61208982612040565b810181811067ffffffffffffffff821117156120a8576120a7612051565b5b80604052505050565b60006120bb611f67565b90506120c78282612080565b919050565b600067ffffffffffffffff8211156120e7576120e6612051565b5b6120f082612040565b9050602081019050919050565b82818337600083830152505050565b600061211f61211a846120cc565b6120b1565b90508281526020810184848401111561213b5761213a61203b565b5b6121468482856120fd565b509392505050565b600082601f83011261216357612162612036565b5b813561217384826020860161210c565b91505092915050565b60006020828403121561219257612191611f71565b5b600082013567ffffffffffffffff8111156121b0576121af611f76565b5b6121bc8482850161214e565b91505092915050565b6000819050919050565b6121d8816121c5565b82525050565b60006020820190506121f360008301846121cf565b92915050565b600081519050919050565b600082825260208201905092915050565b60005b83811015612233578082015181840152602081019050612218565b60008484015250505050565b600061224a826121f9565b6122548185612204565b9350612264818560208601612215565b61226d81612040565b840191505092915050565b60006020820190508181036000830152612292818461223f565b905092915050565b6122a3816121c5565b81146122ae57600080fd5b50565b6000813590506122c08161229a565b92915050565b6000602082840312156122dc576122db611f71565b5b60006122ea848285016122b1565b91505092915050565b600073ffffffffffffffffffffffffffffffffffffffff82169050919050565b600061231e826122f3565b9050919050565b61232e81612313565b82525050565b60006020820190506123496000830184612325565b92915050565b61235881612313565b811461236357600080fd5b50565b6000813590506123758161234f565b92915050565b6000806040838503121561239257612391611f71565b5b60006123a085828601612366565b92505060206123b1858286016122b1565b9150509250929050565b6000806000606084860312156123d4576123d3611f71565b5b60006123e286828701612366565b93505060206123f386828701612366565b9250506040612404868287016122b1565b9150509250925092565b60006020828403121561242457612423611f71565b5b600061243284828501612366565b91505092915050565b61244481612000565b811461244f57600080fd5b50565b6000813590506124618161243b565b92915050565b6000806040838503121561247e5761247d611f71565b5b600061248c85828601612366565b925050602061249d85828601612452565b9150509250929050565b600067ffffffffffffffff8211156124c2576124c1612051565b5b6124cb82612040565b9050602081019050919050565b60006124eb6124e6846124a7565b6120b1565b9050828152602081018484840111156125075761250661203b565b5b6125128482856120fd565b509392505050565b600082601f83011261252f5761252e612036565b5b813561253f8482602086016124d8565b91505092915050565b6000806000806080858703121561256257612561611f71565b5b600061257087828801612366565b945050602061258187828801612366565b9350506040612592878288016122b1565b925050606085013567ffffffffffffffff8111156125b3576125b2611f76565b5b6125bf8782880161251a565b91505092959194509250565b600080604083850312156125e2576125e1611f71565b5b60006125f085828601612366565b925050602061260185828601612366565b9150509250929050565b60006040820190508181036000830152612625818561223f565b90506126346020830184612325565b9392505050565b7f4e487b7100000000000000000000000000000000000000000000000000000000600052602260045260246000fd5b6000600282049050600182168061268257607f821691505b6020821081036126955761269461263b565b5b50919050565b7f4552433732313a20617070726f76616c20746f2063757272656e74206f776e6560008201527f7200000000000000000000000000000000000000000000000000000000000000602082015250565b60006126f7602183612204565b91506127028261269b565b604082019050919050565b60006020820190508181036000830152612726816126ea565b9050919050565b7f4552433732313a20617070726f76652063616c6c6572206973206e6f7420746f60008201527f6b656e206f776e6572206f7220617070726f76656420666f7220616c6c000000602082015250565b6000612789603d83612204565b91506127948261272d565b604082019050919050565b600060208201905081810360008301526127b88161277c565b9050919050565b7f4552433732313a2063616c6c6572206973206e6f7420746f6b656e206f776e6560008201527f72206f7220617070726f76656400000000000000000000000000000000000000602082015250565b600061281b602d83612204565b9150612826826127bf565b604082019050919050565b6000602082019050818103600083015261284a8161280e565b9050919050565b7f4e487b7100000000000000000000000000000000000000000000000000000000600052601160045260246000fd5b600061288b826121c5565b91507fffffffffffffffffffffffffffffffffffffffffffffffffffffffffffffffff82036128bd576128bc612851565b5b600182019050919050565b7f4552433732313a20696e76616c696420746f6b656e2049440000000000000000600082015250565b60006128fe601883612204565b9150612909826128c8565b602082019050919050565b6000602082019050818103600083015261292d816128f1565b9050919050565b7f4552433732313a2061646472657373207a65726f206973206e6f74206120766160008201527f6c6964206f776e65720000000000000000000000000000000000000000000000602082015250565b6000612990602983612204565b915061299b82612934565b604082019050919050565b600060208201905081810360008301526129bf81612983565b9050919050565b600081905092915050565b60006129dc826121f9565b6129e681856129c6565b93506129f6818560208601612215565b80840191505092915050565b6000612a0e82856129d1565b9150612a1a82846129d1565b91508190509392505050565b7f4552433732313a206d696e7420746f20746865207a65726f2061646472657373600082015250565b6000612a5c602083612204565b9150612a6782612a26565b602082019050919050565b60006020820190508181036000830152612a8b81612a4f565b9050919050565b7f4552433732313a20746f6b656e20616c7265616479206d696e74656400000000600082015250565b6000612ac8601c83612204565b9150612ad382612a92565b602082019050919050565b60006020820190508181036000830152612af781612abb565b9050919050565b7f45524337323155524953746f726167653a2055524920736574206f66206e6f6e60008201527f6578697374656e7420746f6b656e000000000000000000000000000000000000602082015250565b6000612b5a602e83612204565b9150612b6582612afe565b604082019050919050565b60006020820190508181036000830152612b8981612b4d565b9050919050565b60008190508160005260206000209050919050565b60006020601f8301049050919050565b600082821b905092915050565b600060088302612bf27fffffffffffffffffffffffffffffffffffffffffffffffffffffffffffffffff82612bb5565b612bfc8683612bb5565b95508019841693508086168417925050509392505050565b6000819050919050565b6000612c39612c34612c2f846121c5565b612c14565b6121c5565b9050919050565b6000819050919050565b612c5383612c1e565b612c67612c5f82612c40565b848454612bc2565b825550505050565b600090565b612c7c612c6f565b612c87818484612c4a565b505050565b5b81811015612cab57612ca0600082612c74565b600181019050612c8d565b5050565b601f821115612cf057612cc181612b90565b612cca84612ba5565b81016020851015612cd9578190505b612ced612ce585612ba5565b830182612c8c565b50505b505050565b600082821c905092915050565b6000612d1360001984600802612cf5565b1980831691505092915050565b6000612d2c8383612d02565b9150826002028217905092915050565b612d45826121f9565b67ffffffffffffffff811115612d5e57612d5d612051565b5b612d68825461266a565b612d73828285612caf565b600060209050601f831160018114612da65760008415612d94578287015190505b612d9e8582612d20565b865550612e06565b601f198416612db486612b90565b60005b82811015612ddc57848901518255600182019150602085019450602081019050612db7565b86831015612df95784890151612df5601f891682612d02565b8355505b6001600288020188555050505b505050505050565b7f4552433732313a207472616e736665722066726f6d20696e636f72726563742060008201527f6f776e6572000000000000000000000000000000000000000000000000000000602082015250565b6000612e6a602583612204565b9150612e7582612e0e565b604082019050919050565b60006020820190508181036000830152612e9981612e5d565b9050919050565b7f4552433732313a207472616e7366657220746f20746865207a65726f2061646460008201527f7265737300000000000000000000000000000000000000000000000000000000602082015250565b6000612efc602483612204565b9150612f0782612ea0565b604082019050919050565b60006020820190508181036000830152612f2b81612eef565b9050919050565b7f4552433732313a20617070726f766520746f2063616c6c657200000000000000600082015250565b6000612f68601983612204565b9150612f7382612f32565b602082019050919050565b60006020820190508181036000830152612f9781612f5b565b9050919050565b7f4552433732313a207472616e7366657220746f206e6f6e20455243373231526560008201527f63656976657220696d706c656d656e7465720000000000000000000000000000602082015250565b6000612ffa603283612204565b915061300582612f9e565b604082019050919050565b6000602082019050818103600083015261302981612fed565b9050919050565b7f4f6e6c7920746865206f776e6572206f66204e46542063616e206275726e206960008201527f7421000000000000000000000000000000000000000000000000000000000000602082015250565b600061308c602283612204565b915061309782613030565b604082019050919050565b600060208201905081810360008301526130bb8161307f565b9050919050565b600081519050919050565b600082825260208201905092915050565b60006130e9826130c2565b6130f381856130cd565b9350613103818560208601612215565b61310c81612040565b840191505092915050565b600060808201905061312c6000830187612325565b6131396020830186612325565b61314660408301856121cf565b818103606083015261315881846130de565b905095945050505050565b60008151905061317281611fa7565b92915050565b60006020828403121561318e5761318d611f71565b5b600061319c84828501613163565b91505092915050565b7f4e487b7100000000000000000000000000000000000000000000000000000000600052601260045260246000fdfea2646970667358221220a62e863101a1e73e377ba239519117f57d4aa0b12e886caaa8373e2bd0de819564736f6c63430008120033",
  "linkReferences": {},
  "deployedLinkReferences": {}
}