{
  "_format": "hh-sol-artifact-1",
  "contractName": "Marketplace",
  "sourceName": "contracts/Marketplace.sol",
  "abi": [
    {
      "inputs": [],
      "stateMutability": "nonpayable",
      "type": "constructor"
    },
    {
      "anonymous": false,
      "inputs": [
        {
          "indexed": true,
          "internalType": "uint256",
          "name": "marketItemId",
          "type": "uint256"
        },
        {
          "indexed": true,
          "internalType": "address",
          "name": "nftContract",
          "type": "address"
        },
        {
          "indexed": true,
          "internalType": "uint256",
          "name": "tokenId",
          "type": "uint256"
        },
        {
          "indexed": false,
          "internalType": "address",
          "name": "creator",
          "type": "address"
        },
        {
          "indexed": false,
          "internalType": "address",
          "name": "seller",
          "type": "address"
        },
        {
          "indexed": false,
          "internalType": "address",
          "name": "owner",
          "type": "address"
        },
        {
          "indexed": false,
          "internalType": "uint256",
          "name": "price",
          "type": "uint256"
        },
        {
          "indexed": false,
          "internalType": "bool",
          "name": "sold",
          "type": "bool"
        },
        {
          "indexed": false,
          "internalType": "bool",
          "name": "canceled",
          "type": "bool"
        }
      ],
      "name": "MarketItemCreated",
      "type": "event"
    },
    {
      "inputs": [
        {
          "internalType": "address",
          "name": "nftContractAddress",
          "type": "address"
        },
        {
          "internalType": "uint256",
          "name": "marketItemId",
          "type": "uint256"
        }
      ],
      "name": "cancelMarketItem",
      "outputs": [],
      "stateMutability": "payable",
      "type": "function"
    },
    {
      "inputs": [
        {
          "internalType": "address",
          "name": "nftContractAddress",
          "type": "address"
        },
        {
          "internalType": "uint256",
          "name": "tokenId",
          "type": "uint256"
        },
        {
          "internalType": "uint256",
          "name": "price",
          "type": "uint256"
        }
      ],
      "name": "createMarketItem",
      "outputs": [
        {
          "internalType": "uint256",
          "name": "",
          "type": "uint256"
        }
      ],
      "stateMutability": "payable",
      "type": "function"
    },
    {
      "inputs": [
        {
          "internalType": "address",
          "name": "nftContractAddress",
          "type": "address"
        },
        {
          "internalType": "uint256",
          "name": "marketItemId",
          "type": "uint256"
        }
      ],
      "name": "createMarketSale",
      "outputs": [],
      "stateMutability": "payable",
      "type": "function"
    },
    {
      "inputs": [
        {
          "internalType": "uint256",
          "name": "typeId",
          "type": "uint256"
        }
      ],
      "name": "fetchAllAvailableMarketItems",
      "outputs": [
        {
          "components": [
            {
              "internalType": "uint256",
              "name": "marketItemId",
              "type": "uint256"
            },
            {
              "internalType": "address",
              "name": "nftContractAddress",
              "type": "address"
            },
            {
              "internalType": "uint256",
              "name": "tokenId",
              "type": "uint256"
            },
            {
              "internalType": "address payable",
              "name": "creator",
              "type": "address"
            },
            {
              "internalType": "address payable",
              "name": "seller",
              "type": "address"
            },
            {
              "internalType": "address payable",
              "name": "owner",
              "type": "address"
            },
            {
              "internalType": "uint256",
              "name": "price",
              "type": "uint256"
            },
            {
              "internalType": "bool",
              "name": "sold",
              "type": "bool"
            },
            {
              "internalType": "bool",
              "name": "canceled",
              "type": "bool"
            }
          ],
          "internalType": "struct Marketplace.MarketItem[]",
          "name": "",
          "type": "tuple[]"
        }
      ],
      "stateMutability": "view",
      "type": "function"
    },
    {
      "inputs": [
        {
          "internalType": "uint256",
          "name": "num",
          "type": "uint256"
        },
        {
          "internalType": "uint256",
          "name": "shift",
          "type": "uint256"
        },
        {
          "internalType": "uint256",
          "name": "typeId",
          "type": "uint256"
        }
      ],
      "name": "fetchLastNumWithShiftMarketItems",
      "outputs": [
        {
          "components": [
            {
              "internalType": "uint256",
              "name": "marketItemId",
              "type": "uint256"
            },
            {
              "internalType": "address",
              "name": "nftContractAddress",
              "type": "address"
            },
            {
              "internalType": "uint256",
              "name": "tokenId",
              "type": "uint256"
            },
            {
              "internalType": "address payable",
              "name": "creator",
              "type": "address"
            },
            {
              "internalType": "address payable",
              "name": "seller",
              "type": "address"
            },
            {
              "internalType": "address payable",
              "name": "owner",
              "type": "address"
            },
            {
              "internalType": "uint256",
              "name": "price",
              "type": "uint256"
            },
            {
              "internalType": "bool",
              "name": "sold",
              "type": "bool"
            },
            {
              "internalType": "bool",
              "name": "canceled",
              "type": "bool"
            }
          ],
          "internalType": "struct Marketplace.MarketItem[]",
          "name": "",
          "type": "tuple[]"
        }
      ],
      "stateMutability": "view",
      "type": "function"
    },
    {
      "inputs": [
        {
          "internalType": "string",
          "name": "_addressProperty",
          "type": "string"
        }
      ],
      "name": "fetchMarketItemsByAddressProperty",
      "outputs": [
        {
          "components": [
            {
              "internalType": "uint256",
              "name": "marketItemId",
              "type": "uint256"
            },
            {
              "internalType": "address",
              "name": "nftContractAddress",
              "type": "address"
            },
            {
              "internalType": "uint256",
              "name": "tokenId",
              "type": "uint256"
            },
            {
              "internalType": "address payable",
              "name": "creator",
              "type": "address"
            },
            {
              "internalType": "address payable",
              "name": "seller",
              "type": "address"
            },
            {
              "internalType": "address payable",
              "name": "owner",
              "type": "address"
            },
            {
              "internalType": "uint256",
              "name": "price",
              "type": "uint256"
            },
            {
              "internalType": "bool",
              "name": "sold",
              "type": "bool"
            },
            {
              "internalType": "bool",
              "name": "canceled",
              "type": "bool"
            }
          ],
          "internalType": "struct Marketplace.MarketItem[]",
          "name": "",
          "type": "tuple[]"
        }
      ],
      "stateMutability": "view",
      "type": "function"
    },
    {
      "inputs": [
        {
          "internalType": "uint256[]",
          "name": "arrIds",
          "type": "uint256[]"
        },
        {
          "internalType": "uint256",
          "name": "typeId",
          "type": "uint256"
        }
      ],
      "name": "fetchMarketItemsByMarketItemIds",
      "outputs": [
        {
          "components": [
            {
              "internalType": "uint256",
              "name": "marketItemId",
              "type": "uint256"
            },
            {
              "internalType": "address",
              "name": "nftContractAddress",
              "type": "address"
            },
            {
              "internalType": "uint256",
              "name": "tokenId",
              "type": "uint256"
            },
            {
              "internalType": "address payable",
              "name": "creator",
              "type": "address"
            },
            {
              "internalType": "address payable",
              "name": "seller",
              "type": "address"
            },
            {
              "internalType": "address payable",
              "name": "owner",
              "type": "address"
            },
            {
              "internalType": "uint256",
              "name": "price",
              "type": "uint256"
            },
            {
              "internalType": "bool",
              "name": "sold",
              "type": "bool"
            },
            {
              "internalType": "bool",
              "name": "canceled",
              "type": "bool"
            }
          ],
          "internalType": "struct Marketplace.MarketItem[]",
          "name": "",
          "type": "tuple[]"
        }
      ],
      "stateMutability": "view",
      "type": "function"
    },
    {
      "inputs": [
        {
          "internalType": "uint256[]",
          "name": "arrIds",
          "type": "uint256[]"
        }
      ],
      "name": "fetchMarketItemsByTokenIds",
      "outputs": [
        {
          "components": [
            {
              "internalType": "uint256",
              "name": "marketItemId",
              "type": "uint256"
            },
            {
              "internalType": "address",
              "name": "nftContractAddress",
              "type": "address"
            },
            {
              "internalType": "uint256",
              "name": "tokenId",
              "type": "uint256"
            },
            {
              "internalType": "address payable",
              "name": "creator",
              "type": "address"
            },
            {
              "internalType": "address payable",
              "name": "seller",
              "type": "address"
            },
            {
              "internalType": "address payable",
              "name": "owner",
              "type": "address"
            },
            {
              "internalType": "uint256",
              "name": "price",
              "type": "uint256"
            },
            {
              "internalType": "bool",
              "name": "sold",
              "type": "bool"
            },
            {
              "internalType": "bool",
              "name": "canceled",
              "type": "bool"
            }
          ],
          "internalType": "struct Marketplace.MarketItem[]",
          "name": "",
          "type": "tuple[]"
        }
      ],
      "stateMutability": "view",
      "type": "function"
    },
    {
      "inputs": [
        {
          "internalType": "uint256",
          "name": "minId",
          "type": "uint256"
        },
        {
          "internalType": "uint256",
          "name": "maxId",
          "type": "uint256"
        },
        {
          "internalType": "uint256",
          "name": "typeId",
          "type": "uint256"
        }
      ],
      "name": "fetchMarketItemsInRange",
      "outputs": [
        {
          "components": [
            {
              "internalType": "uint256",
              "name": "marketItemId",
              "type": "uint256"
            },
            {
              "internalType": "address",
              "name": "nftContractAddress",
              "type": "address"
            },
            {
              "internalType": "uint256",
              "name": "tokenId",
              "type": "uint256"
            },
            {
              "internalType": "address payable",
              "name": "creator",
              "type": "address"
            },
            {
              "internalType": "address payable",
              "name": "seller",
              "type": "address"
            },
            {
              "internalType": "address payable",
              "name": "owner",
              "type": "address"
            },
            {
              "internalType": "uint256",
              "name": "price",
              "type": "uint256"
            },
            {
              "internalType": "bool",
              "name": "sold",
              "type": "bool"
            },
            {
              "internalType": "bool",
              "name": "canceled",
              "type": "bool"
            }
          ],
          "internalType": "struct Marketplace.MarketItem[]",
          "name": "",
          "type": "tuple[]"
        }
      ],
      "stateMutability": "view",
      "type": "function"
    },
    {
      "inputs": [
        {
          "internalType": "uint256",
          "name": "minId",
          "type": "uint256"
        },
        {
          "internalType": "uint256",
          "name": "maxId",
          "type": "uint256"
        }
      ],
      "name": "fetchMarketItemsInTokenRange",
      "outputs": [
        {
          "components": [
            {
              "internalType": "uint256",
              "name": "marketItemId",
              "type": "uint256"
            },
            {
              "internalType": "address",
              "name": "nftContractAddress",
              "type": "address"
            },
            {
              "internalType": "uint256",
              "name": "tokenId",
              "type": "uint256"
            },
            {
              "internalType": "address payable",
              "name": "creator",
              "type": "address"
            },
            {
              "internalType": "address payable",
              "name": "seller",
              "type": "address"
            },
            {
              "internalType": "address payable",
              "name": "owner",
              "type": "address"
            },
            {
              "internalType": "uint256",
              "name": "price",
              "type": "uint256"
            },
            {
              "internalType": "bool",
              "name": "sold",
              "type": "bool"
            },
            {
              "internalType": "bool",
              "name": "canceled",
              "type": "bool"
            }
          ],
          "internalType": "struct Marketplace.MarketItem[]",
          "name": "",
          "type": "tuple[]"
        }
      ],
      "stateMutability": "view",
      "type": "function"
    },
    {
      "inputs": [],
      "name": "fetchOwnedMarketItems",
      "outputs": [
        {
          "components": [
            {
              "internalType": "uint256",
              "name": "marketItemId",
              "type": "uint256"
            },
            {
              "internalType": "address",
              "name": "nftContractAddress",
              "type": "address"
            },
            {
              "internalType": "uint256",
              "name": "tokenId",
              "type": "uint256"
            },
            {
              "internalType": "address payable",
              "name": "creator",
              "type": "address"
            },
            {
              "internalType": "address payable",
              "name": "seller",
              "type": "address"
            },
            {
              "internalType": "address payable",
              "name": "owner",
              "type": "address"
            },
            {
              "internalType": "uint256",
              "name": "price",
              "type": "uint256"
            },
            {
              "internalType": "bool",
              "name": "sold",
              "type": "bool"
            },
            {
              "internalType": "bool",
              "name": "canceled",
              "type": "bool"
            }
          ],
          "internalType": "struct Marketplace.MarketItem[]",
          "name": "",
          "type": "tuple[]"
        }
      ],
      "stateMutability": "view",
      "type": "function"
    },
    {
      "inputs": [],
      "name": "fetchSellingMarketItems",
      "outputs": [
        {
          "components": [
            {
              "internalType": "uint256",
              "name": "marketItemId",
              "type": "uint256"
            },
            {
              "internalType": "address",
              "name": "nftContractAddress",
              "type": "address"
            },
            {
              "internalType": "uint256",
              "name": "tokenId",
              "type": "uint256"
            },
            {
              "internalType": "address payable",
              "name": "creator",
              "type": "address"
            },
            {
              "internalType": "address payable",
              "name": "seller",
              "type": "address"
            },
            {
              "internalType": "address payable",
              "name": "owner",
              "type": "address"
            },
            {
              "internalType": "uint256",
              "name": "price",
              "type": "uint256"
            },
            {
              "internalType": "bool",
              "name": "sold",
              "type": "bool"
            },
            {
              "internalType": "bool",
              "name": "canceled",
              "type": "bool"
            }
          ],
          "internalType": "struct Marketplace.MarketItem[]",
          "name": "",
          "type": "tuple[]"
        }
      ],
      "stateMutability": "view",
      "type": "function"
    },
    {
      "inputs": [
        {
          "internalType": "uint256",
          "name": "tokenId",
          "type": "uint256"
        }
      ],
      "name": "getLatestMarketItemByTokenId",
      "outputs": [
        {
          "components": [
            {
              "internalType": "uint256",
              "name": "marketItemId",
              "type": "uint256"
            },
            {
              "internalType": "address",
              "name": "nftContractAddress",
              "type": "address"
            },
            {
              "internalType": "uint256",
              "name": "tokenId",
              "type": "uint256"
            },
            {
              "internalType": "address payable",
              "name": "creator",
              "type": "address"
            },
            {
              "internalType": "address payable",
              "name": "seller",
              "type": "address"
            },
            {
              "internalType": "address payable",
              "name": "owner",
              "type": "address"
            },
            {
              "internalType": "uint256",
              "name": "price",
              "type": "uint256"
            },
            {
              "internalType": "bool",
              "name": "sold",
              "type": "bool"
            },
            {
              "internalType": "bool",
              "name": "canceled",
              "type": "bool"
            }
          ],
          "internalType": "struct Marketplace.MarketItem",
          "name": "",
          "type": "tuple"
        },
        {
          "internalType": "bool",
          "name": "",
          "type": "bool"
        }
      ],
      "stateMutability": "view",
      "type": "function"
    },
    {
      "inputs": [],
      "name": "getListingFee",
      "outputs": [
        {
          "internalType": "uint256",
          "name": "",
          "type": "uint256"
        }
      ],
      "stateMutability": "view",
      "type": "function"
    },
    {
      "inputs": [
        {
          "internalType": "uint256",
          "name": "typeId",
          "type": "uint256"
        }
      ],
      "name": "numberOfMarketItems",
      "outputs": [
        {
          "internalType": "uint256",
          "name": "",
          "type": "uint256"
        }
      ],
      "stateMutability": "view",
      "type": "function"
    }
  ],
  "bytecode": "0x608060405266038d7ea4c6800060055534801561001b57600080fd5b50600160008190555033600460006101000a81548173ffffffffffffffffffffffffffffffffffffffff021916908373ffffffffffffffffffffffffffffffffffffffff160217905550613f95806100746000396000f3fe6080604052600436106100e85760003560e01c80636f9b49201161008a578063c23b139e11610059578063c23b139e14610329578063cd90fdf414610345578063df35a2a014610382578063e60a3bf1146103bf576100e8565b80636f9b492014610267578063727a5aa0146102a5578063b3e3c42f146102e2578063b8fe6abe146102fe576100e8565b8063342a84ea116100c6578063342a84ea146101925780634cf2a069146101cf57806358eb2df5146101fa578063686ad91c1461022a576100e8565b80630203c823146100ed57806309a5b706146101185780630c4fc3bb14610155575b600080fd5b3480156100f957600080fd5b506101026103fc565b60405161010f9190613290565b60405180910390f35b34801561012457600080fd5b5061013f600480360381019061013a91906132f2565b610441565b60405161014c9190613290565b60405180910390f35b34801561016157600080fd5b5061017c60048036038101906101779190613332565b6107dc565b6040516101899190613290565b60405180910390f35b34801561019e57600080fd5b506101b960048036038101906101b491906134de565b610bce565b6040516101c69190613290565b60405180910390f35b3480156101db57600080fd5b506101e4610f87565b6040516101f19190613290565b60405180910390f35b610214600480360381019061020f9190613553565b610fcc565b60405161022191906135b5565b60405180910390f35b34801561023657600080fd5b50610251600480360381019061024c91906135d0565b611402565b60405161025e9190613290565b60405180910390f35b34801561027357600080fd5b5061028e6004803603810190610289919061362c565b6117da565b60405161029c92919061371f565b60405180910390f35b3480156102b157600080fd5b506102cc60048036038101906102c7919061362c565b611a1a565b6040516102d99190613290565b60405180910390f35b6102fc60048036038101906102f7919061374a565b611dd7565b005b34801561030a57600080fd5b50610313611feb565b60405161032091906135b5565b60405180910390f35b610343600480360381019061033e919061374a565b611ff5565b005b34801561035157600080fd5b5061036c6004803603810190610367919061383f565b612268565b6040516103799190613290565b60405180910390f35b34801561038e57600080fd5b506103a960048036038101906103a49190613332565b612a22565b6040516103b69190613290565b60405180910390f35b3480156103cb57600080fd5b506103e660048036038101906103e1919061362c565b612dac565b6040516103f391906135b5565b60405180910390f35b606061043c6040518060400160405280600581526020017f6f776e6572000000000000000000000000000000000000000000000000000000815250612268565b905090565b6060600061044f6001612df4565b90506000848461045f91906138b7565b905060008167ffffffffffffffff81111561047d5761047c61339b565b5b6040519080825280602002602001820160405280156104b657816020015b6104a3612feb565b81526020019060019003908161049b5790505b5090506000805b848110156107ce576000600660006001846104d891906138eb565b815260200190815260200160002060405180610120016040529081600082015481526020016001820160009054906101000a900473ffffffffffffffffffffffffffffffffffffffff1673ffffffffffffffffffffffffffffffffffffffff1673ffffffffffffffffffffffffffffffffffffffff168152602001600282015481526020016003820160009054906101000a900473ffffffffffffffffffffffffffffffffffffffff1673ffffffffffffffffffffffffffffffffffffffff1673ffffffffffffffffffffffffffffffffffffffff1681526020016004820160009054906101000a900473ffffffffffffffffffffffffffffffffffffffff1673ffffffffffffffffffffffffffffffffffffffff1673ffffffffffffffffffffffffffffffffffffffff1681526020016005820160009054906101000a900473ffffffffffffffffffffffffffffffffffffffff1673ffffffffffffffffffffffffffffffffffffffff1673ffffffffffffffffffffffffffffffffffffffff168152602001600682015481526020016007820160009054906101000a900460ff161515151581526020016007820160019054906101000a900460ff1615151515815250509050600073ffffffffffffffffffffffffffffffffffffffff168160a0015173ffffffffffffffffffffffffffffffffffffffff16146106de57506107bb565b87816040015111806106f35750888160400151105b156106fe57506107bb565b806020015173ffffffffffffffffffffffffffffffffffffffff1663db44fe0782604001516040518263ffffffff1660e01b815260040161073f91906135b5565b602060405180830381865afa15801561075c573d6000803e3d6000fd5b505050506040513d601f19601f82011682018060405250810190610780919061394b565b1561078b57506107bb565b8084848151811061079f5761079e613978565b5b60200260200101819052506001836107b791906138eb565b9250505b80806107c6906139a7565b9150506104bd565b508194505050505092915050565b606060006107ea6001612df4565b90508085101580610806575080858561080391906138eb565b10155b1561081357809450600093505b80841015806108225750600084105b1561082f57600094508093505b600085905060008167ffffffffffffffff8111156108505761084f61339b565b5b60405190808252806020026020018201604052801561088957816020015b610876612feb565b81526020019060019003908161086e5790505b50905060008087898661089c91906138b7565b6108a691906138b7565b90505b87856108b591906138b7565b811015610bbf576000600660006001846108cf91906138eb565b815260200190815260200160002060405180610120016040529081600082015481526020016001820160009054906101000a900473ffffffffffffffffffffffffffffffffffffffff1673ffffffffffffffffffffffffffffffffffffffff1673ffffffffffffffffffffffffffffffffffffffff168152602001600282015481526020016003820160009054906101000a900473ffffffffffffffffffffffffffffffffffffffff1673ffffffffffffffffffffffffffffffffffffffff1673ffffffffffffffffffffffffffffffffffffffff1681526020016004820160009054906101000a900473ffffffffffffffffffffffffffffffffffffffff1673ffffffffffffffffffffffffffffffffffffffff1673ffffffffffffffffffffffffffffffffffffffff1681526020016005820160009054906101000a900473ffffffffffffffffffffffffffffffffffffffff1673ffffffffffffffffffffffffffffffffffffffff1673ffffffffffffffffffffffffffffffffffffffff168152602001600682015481526020016007820160009054906101000a900460ff161515151581526020016007820160019054906101000a900460ff1615151515815250509050600073ffffffffffffffffffffffffffffffffffffffff168160a0015173ffffffffffffffffffffffffffffffffffffffff1614158015610ad85750600188145b15610ae35750610bac565b806020015173ffffffffffffffffffffffffffffffffffffffff1663db44fe0782604001516040518263ffffffff1660e01b8152600401610b2491906135b5565b602060405180830381865afa158015610b41573d6000803e3d6000fd5b505050506040513d601f19601f82011682018060405250810190610b65919061394b565b8015610b715750600188145b15610b7c5750610bac565b80848481518110610b9057610b8f613978565b5b6020026020010181905250600183610ba891906138eb565b9250505b8080610bb7906139a7565b9150506108a9565b50819450505050509392505050565b60606000610bdc6001612df4565b905060008351905060008167ffffffffffffffff811115610c0057610bff61339b565b5b604051908082528060200260200182016040528015610c3957816020015b610c26612feb565b815260200190600190039081610c1e5790505b5090506000805b8651811015610f7a5760005b85811015610f6857600060066000600184610c6791906138eb565b815260200190815260200160002060405180610120016040529081600082015481526020016001820160009054906101000a900473ffffffffffffffffffffffffffffffffffffffff1673ffffffffffffffffffffffffffffffffffffffff1673ffffffffffffffffffffffffffffffffffffffff168152602001600282015481526020016003820160009054906101000a900473ffffffffffffffffffffffffffffffffffffffff1673ffffffffffffffffffffffffffffffffffffffff1673ffffffffffffffffffffffffffffffffffffffff1681526020016004820160009054906101000a900473ffffffffffffffffffffffffffffffffffffffff1673ffffffffffffffffffffffffffffffffffffffff1673ffffffffffffffffffffffffffffffffffffffff1681526020016005820160009054906101000a900473ffffffffffffffffffffffffffffffffffffffff1673ffffffffffffffffffffffffffffffffffffffff1673ffffffffffffffffffffffffffffffffffffffff168152602001600682015481526020016007820160009054906101000a900460ff161515151581526020016007820160019054906101000a900460ff1615151515815250509050600073ffffffffffffffffffffffffffffffffffffffff168160a0015173ffffffffffffffffffffffffffffffffffffffff1614610e6d5750610f55565b888381518110610e8057610e7f613978565b5b6020026020010151816040015114610e985750610f55565b806020015173ffffffffffffffffffffffffffffffffffffffff1663db44fe0782604001516040518263ffffffff1660e01b8152600401610ed991906135b5565b602060405180830381865afa158015610ef6573d6000803e3d6000fd5b505050506040513d601f19601f82011682018060405250810190610f1a919061394b565b15610f255750610f55565b80858581518110610f3957610f38613978565b5b6020026020010181905250600184610f5191906138eb565b9350505b8080610f60906139a7565b915050610c4c565b5080610f73906139a7565b9050610c40565b5081945050505050919050565b6060610fc76040518060400160405280600681526020017f73656c6c65720000000000000000000000000000000000000000000000000000815250612268565b905090565b6000610fd6612e02565b60008211611019576040517f08c379a000000000000000000000000000000000000000000000000000000000815260040161101090613a4c565b60405180910390fd5b600554341461105d576040517f08c379a000000000000000000000000000000000000000000000000000000000815260040161105490613ade565b60405180910390fd5b6110676001612e51565b60006110736001612df4565b905060008573ffffffffffffffffffffffffffffffffffffffff1663867d3397866040518263ffffffff1660e01b81526004016110b091906135b5565b602060405180830381865afa1580156110cd573d6000803e3d6000fd5b505050506040513d601f19601f820116820180604052508101906110f19190613b13565b90506040518061012001604052808381526020018773ffffffffffffffffffffffffffffffffffffffff1681526020018681526020018273ffffffffffffffffffffffffffffffffffffffff1681526020013373ffffffffffffffffffffffffffffffffffffffff168152602001600073ffffffffffffffffffffffffffffffffffffffff16815260200185815260200160001515815260200160001515815250600660008481526020019081526020016000206000820151816000015560208201518160010160006101000a81548173ffffffffffffffffffffffffffffffffffffffff021916908373ffffffffffffffffffffffffffffffffffffffff1602179055506040820151816002015560608201518160030160006101000a81548173ffffffffffffffffffffffffffffffffffffffff021916908373ffffffffffffffffffffffffffffffffffffffff16021790555060808201518160040160006101000a81548173ffffffffffffffffffffffffffffffffffffffff021916908373ffffffffffffffffffffffffffffffffffffffff16021790555060a08201518160050160006101000a81548173ffffffffffffffffffffffffffffffffffffffff021916908373ffffffffffffffffffffffffffffffffffffffff16021790555060c0820151816006015560e08201518160070160006101000a81548160ff0219169083151502179055506101008201518160070160016101000a81548160ff0219169083151502179055509050508573ffffffffffffffffffffffffffffffffffffffff166323b872dd3330886040518463ffffffff1660e01b815260040161136093929190613b4f565b600060405180830381600087803b15801561137a57600080fd5b505af115801561138e573d6000803e3d6000fd5b50505050848673ffffffffffffffffffffffffffffffffffffffff16837fa3b15201f5409f14cce6233dc60972278c313ff3ddbdee57ff092c0e95313526843360008a6000806040516113e696959493929190613be5565b60405180910390a481925050506113fb612e67565b9392505050565b606060008351905060008167ffffffffffffffff8111156114265761142561339b565b5b60405190808252806020026020018201604052801561145f57816020015b61144c612feb565b8152602001906001900390816114445790505b5090506000805b86518110156117cd576114796001612df4565b87828151811061148c5761148b613978565b5b602002602001015111806114ba575060008782815181106114b0576114af613978565b5b6020026020010151105b6117bc576000600660008984815181106114d7576114d6613978565b5b6020026020010151815260200190815260200160002060405180610120016040529081600082015481526020016001820160009054906101000a900473ffffffffffffffffffffffffffffffffffffffff1673ffffffffffffffffffffffffffffffffffffffff1673ffffffffffffffffffffffffffffffffffffffff168152602001600282015481526020016003820160009054906101000a900473ffffffffffffffffffffffffffffffffffffffff1673ffffffffffffffffffffffffffffffffffffffff1673ffffffffffffffffffffffffffffffffffffffff1681526020016004820160009054906101000a900473ffffffffffffffffffffffffffffffffffffffff1673ffffffffffffffffffffffffffffffffffffffff1673ffffffffffffffffffffffffffffffffffffffff1681526020016005820160009054906101000a900473ffffffffffffffffffffffffffffffffffffffff1673ffffffffffffffffffffffffffffffffffffffff1673ffffffffffffffffffffffffffffffffffffffff168152602001600682015481526020016007820160009054906101000a900460ff161515151581526020016007820160019054906101000a900460ff1615151515815250509050600073ffffffffffffffffffffffffffffffffffffffff168160a0015173ffffffffffffffffffffffffffffffffffffffff16141580156116e85750600187145b156116f357506117bc565b806020015173ffffffffffffffffffffffffffffffffffffffff1663db44fe0782604001516040518263ffffffff1660e01b815260040161173491906135b5565b602060405180830381865afa158015611751573d6000803e3d6000fd5b505050506040513d601f19601f82011682018060405250810190611775919061394b565b80156117815750600187145b1561178c57506117bc565b808484815181106117a05761179f613978565b5b60200260200101819052506001836117b891906138eb565b9250505b806117c6906139a7565b9050611466565b5081935050505092915050565b6117e2612feb565b6000806117ef6001612df4565b905060008190505b6000811115611a025760006006600083815260200190815260200160002060405180610120016040529081600082015481526020016001820160009054906101000a900473ffffffffffffffffffffffffffffffffffffffff1673ffffffffffffffffffffffffffffffffffffffff1673ffffffffffffffffffffffffffffffffffffffff168152602001600282015481526020016003820160009054906101000a900473ffffffffffffffffffffffffffffffffffffffff1673ffffffffffffffffffffffffffffffffffffffff1673ffffffffffffffffffffffffffffffffffffffff1681526020016004820160009054906101000a900473ffffffffffffffffffffffffffffffffffffffff1673ffffffffffffffffffffffffffffffffffffffff1673ffffffffffffffffffffffffffffffffffffffff1681526020016005820160009054906101000a900473ffffffffffffffffffffffffffffffffffffffff1673ffffffffffffffffffffffffffffffffffffffff1673ffffffffffffffffffffffffffffffffffffffff168152602001600682015481526020016007820160009054906101000a900460ff161515151581526020016007820160019054906101000a900460ff1615151515815250509050858160400151146119e057506119ef565b80600194509450505050611a15565b80806119fa90613c46565b9150506117f7565b50611a0b612feb565b8060009350935050505b915091565b60606000611a286001612df4565b90506000611a366002612df4565b90506000611a446003612df4565b90506000818385611a5591906138b7565b611a5f91906138b7565b905060008167ffffffffffffffff811115611a7d57611a7c61339b565b5b604051908082528060200260200182016040528015611ab657816020015b611aa3612feb565b815260200190600190039081611a9b5790505b5090506000805b86811015611dc857600060066000600184611ad891906138eb565b815260200190815260200160002060405180610120016040529081600082015481526020016001820160009054906101000a900473ffffffffffffffffffffffffffffffffffffffff1673ffffffffffffffffffffffffffffffffffffffff1673ffffffffffffffffffffffffffffffffffffffff168152602001600282015481526020016003820160009054906101000a900473ffffffffffffffffffffffffffffffffffffffff1673ffffffffffffffffffffffffffffffffffffffff1673ffffffffffffffffffffffffffffffffffffffff1681526020016004820160009054906101000a900473ffffffffffffffffffffffffffffffffffffffff1673ffffffffffffffffffffffffffffffffffffffff1673ffffffffffffffffffffffffffffffffffffffff1681526020016005820160009054906101000a900473ffffffffffffffffffffffffffffffffffffffff1673ffffffffffffffffffffffffffffffffffffffff1673ffffffffffffffffffffffffffffffffffffffff168152602001600682015481526020016007820160009054906101000a900460ff161515151581526020016007820160019054906101000a900460ff1615151515815250509050600073ffffffffffffffffffffffffffffffffffffffff168160a0015173ffffffffffffffffffffffffffffffffffffffff1614158015611ce1575060018a145b15611cec5750611db5565b806020015173ffffffffffffffffffffffffffffffffffffffff1663db44fe0782604001516040518263ffffffff1660e01b8152600401611d2d91906135b5565b602060405180830381865afa158015611d4a573d6000803e3d6000fd5b505050506040513d601f19601f82011682018060405250810190611d6e919061394b565b8015611d7a575060018a145b15611d855750611db5565b80848481518110611d9957611d98613978565b5b6020026020010181905250600183611db191906138eb565b9250505b8080611dc0906139a7565b915050611abd565b50819650505050505050919050565b611ddf612e02565b60006006600083815260200190815260200160002060020154905060008111611e3d576040517f08c379a0000000000000000000000000000000000000000000000000000000008152600401611e3490613cbb565b60405180910390fd5b3373ffffffffffffffffffffffffffffffffffffffff166006600084815260200190815260200160002060040160009054906101000a900473ffffffffffffffffffffffffffffffffffffffff1673ffffffffffffffffffffffffffffffffffffffff1614611ee1576040517f08c379a0000000000000000000000000000000000000000000000000000000008152600401611ed890613d27565b60405180910390fd5b8273ffffffffffffffffffffffffffffffffffffffff166323b872dd3033846040518463ffffffff1660e01b8152600401611f1e93929190613b4f565b600060405180830381600087803b158015611f3857600080fd5b505af1158015611f4c573d6000803e3d6000fd5b50505050336006600084815260200190815260200160002060050160006101000a81548173ffffffffffffffffffffffffffffffffffffffff021916908373ffffffffffffffffffffffffffffffffffffffff16021790555060016006600084815260200190815260200160002060070160016101000a81548160ff021916908315150217905550611fde6003612e51565b50611fe7612e67565b5050565b6000600554905090565b611ffd612e02565b600060066000838152602001908152602001600020600601549050600060066000848152602001908152602001600020600201549050813414612075576040517f08c379a000000000000000000000000000000000000000000000000000000000815260040161206c90613db9565b60405180910390fd5b336006600085815260200190815260200160002060050160006101000a81548173ffffffffffffffffffffffffffffffffffffffff021916908373ffffffffffffffffffffffffffffffffffffffff16021790555060016006600085815260200190815260200160002060070160006101000a81548160ff0219169083151502179055506006600084815260200190815260200160002060040160009054906101000a900473ffffffffffffffffffffffffffffffffffffffff1673ffffffffffffffffffffffffffffffffffffffff166108fc349081150290604051600060405180830381858888f19350505050158015612175573d6000803e3d6000fd5b508373ffffffffffffffffffffffffffffffffffffffff166323b872dd3033846040518463ffffffff1660e01b81526004016121b393929190613b4f565b600060405180830381600087803b1580156121cd57600080fd5b505af11580156121e1573d6000803e3d6000fd5b505050506121ef6002612e51565b600460009054906101000a900473ffffffffffffffffffffffffffffffffffffffff1673ffffffffffffffffffffffffffffffffffffffff166108fc6005549081150290604051600060405180830381858888f19350505050158015612259573d6000803e3d6000fd5b505050612264612e67565b5050565b60606122a9826040518060400160405280600681526020017f73656c6c65720000000000000000000000000000000000000000000000000000815250612e71565b806122ef57506122ee826040518060400160405280600581526020017f6f776e6572000000000000000000000000000000000000000000000000000000815250612e71565b5b61232e576040517f08c379a000000000000000000000000000000000000000000000000000000000815260040161232590613e4b565b60405180910390fd5b600061233a6001612df4565b905060008060005b838110156125925760006006600060018461235d91906138eb565b8152602001908152602001600020905060006125318260405180610120016040529081600082015481526020016001820160009054906101000a900473ffffffffffffffffffffffffffffffffffffffff1673ffffffffffffffffffffffffffffffffffffffff1673ffffffffffffffffffffffffffffffffffffffff168152602001600282015481526020016003820160009054906101000a900473ffffffffffffffffffffffffffffffffffffffff1673ffffffffffffffffffffffffffffffffffffffff1673ffffffffffffffffffffffffffffffffffffffff1681526020016004820160009054906101000a900473ffffffffffffffffffffffffffffffffffffffff1673ffffffffffffffffffffffffffffffffffffffff1673ffffffffffffffffffffffffffffffffffffffff1681526020016005820160009054906101000a900473ffffffffffffffffffffffffffffffffffffffff1673ffffffffffffffffffffffffffffffffffffffff1673ffffffffffffffffffffffffffffffffffffffff168152602001600682015481526020016007820160009054906101000a900460ff161515151581526020016007820160019054906101000a900460ff16151515158152505089612eca565b90503373ffffffffffffffffffffffffffffffffffffffff168173ffffffffffffffffffffffffffffffffffffffff161461256d57505061257f565b60018561257a91906138eb565b945050505b808061258a906139a7565b915050612342565b5060008267ffffffffffffffff8111156125af576125ae61339b565b5b6040519080825280602002602001820160405280156125e857816020015b6125d5612feb565b8152602001906001900390816125cd5790505b50905060005b84811015612a155760006006600060018461260991906138eb565b8152602001908152602001600020905060006127dd8260405180610120016040529081600082015481526020016001820160009054906101000a900473ffffffffffffffffffffffffffffffffffffffff1673ffffffffffffffffffffffffffffffffffffffff1673ffffffffffffffffffffffffffffffffffffffff168152602001600282015481526020016003820160009054906101000a900473ffffffffffffffffffffffffffffffffffffffff1673ffffffffffffffffffffffffffffffffffffffff1673ffffffffffffffffffffffffffffffffffffffff1681526020016004820160009054906101000a900473ffffffffffffffffffffffffffffffffffffffff1673ffffffffffffffffffffffffffffffffffffffff1673ffffffffffffffffffffffffffffffffffffffff1681526020016005820160009054906101000a900473ffffffffffffffffffffffffffffffffffffffff1673ffffffffffffffffffffffffffffffffffffffff1673ffffffffffffffffffffffffffffffffffffffff168152602001600682015481526020016007820160009054906101000a900460ff161515151581526020016007820160019054906101000a900460ff1615151515815250508a612eca565b90503373ffffffffffffffffffffffffffffffffffffffff168173ffffffffffffffffffffffffffffffffffffffff1614612819575050612a02565b8160405180610120016040529081600082015481526020016001820160009054906101000a900473ffffffffffffffffffffffffffffffffffffffff1673ffffffffffffffffffffffffffffffffffffffff1673ffffffffffffffffffffffffffffffffffffffff168152602001600282015481526020016003820160009054906101000a900473ffffffffffffffffffffffffffffffffffffffff1673ffffffffffffffffffffffffffffffffffffffff1673ffffffffffffffffffffffffffffffffffffffff1681526020016004820160009054906101000a900473ffffffffffffffffffffffffffffffffffffffff1673ffffffffffffffffffffffffffffffffffffffff1673ffffffffffffffffffffffffffffffffffffffff1681526020016005820160009054906101000a900473ffffffffffffffffffffffffffffffffffffffff1673ffffffffffffffffffffffffffffffffffffffff1673ffffffffffffffffffffffffffffffffffffffff168152602001600682015481526020016007820160009054906101000a900460ff161515151581526020016007820160019054906101000a900460ff1615151515815250508486815181106129e5576129e4613978565b5b60200260200101819052506001856129fd91906138eb565b945050505b8080612a0d906139a7565b9150506125ee565b5080945050505050919050565b606060008484612a3291906138b7565b905060008167ffffffffffffffff811115612a5057612a4f61339b565b5b604051908082528060200260200182016040528015612a8957816020015b612a76612feb565b815260200190600190039081612a6e5790505b5090506000808790505b86811015612d9e57600060066000600184612aae91906138eb565b815260200190815260200160002060405180610120016040529081600082015481526020016001820160009054906101000a900473ffffffffffffffffffffffffffffffffffffffff1673ffffffffffffffffffffffffffffffffffffffff1673ffffffffffffffffffffffffffffffffffffffff168152602001600282015481526020016003820160009054906101000a900473ffffffffffffffffffffffffffffffffffffffff1673ffffffffffffffffffffffffffffffffffffffff1673ffffffffffffffffffffffffffffffffffffffff1681526020016004820160009054906101000a900473ffffffffffffffffffffffffffffffffffffffff1673ffffffffffffffffffffffffffffffffffffffff1673ffffffffffffffffffffffffffffffffffffffff1681526020016005820160009054906101000a900473ffffffffffffffffffffffffffffffffffffffff1673ffffffffffffffffffffffffffffffffffffffff1673ffffffffffffffffffffffffffffffffffffffff168152602001600682015481526020016007820160009054906101000a900460ff161515151581526020016007820160019054906101000a900460ff1615151515815250509050600073ffffffffffffffffffffffffffffffffffffffff168160a0015173ffffffffffffffffffffffffffffffffffffffff1614158015612cb75750600187145b15612cc25750612d8b565b806020015173ffffffffffffffffffffffffffffffffffffffff1663db44fe0782604001516040518263ffffffff1660e01b8152600401612d0391906135b5565b602060405180830381865afa158015612d20573d6000803e3d6000fd5b505050506040513d601f19601f82011682018060405250810190612d44919061394b565b8015612d505750600187145b15612d5b5750612d8b565b80848481518110612d6f57612d6e613978565b5b6020026020010181905250600183612d8791906138eb565b9250505b8080612d96906139a7565b915050612a93565b508193505050509392505050565b60008060008314612dde5760018314612dce57612dc96003612df4565b612dd9565b612dd86002612df4565b5b612de9565b612de86001612df4565b5b905080915050919050565b600081600001549050919050565b600260005403612e47576040517f08c379a0000000000000000000000000000000000000000000000000000000008152600401612e3e90613eb7565b60405180910390fd5b6002600081905550565b6001816000016000828254019250508190555050565b6001600081905550565b600081604051602001612e849190613f48565b6040516020818303038152906040528051906020012083604051602001612eab9190613f48565b6040516020818303038152906040528051906020012014905092915050565b6000612f0b826040518060400160405280600681526020017f73656c6c65720000000000000000000000000000000000000000000000000000815250612e71565b80612f515750612f50826040518060400160405280600581526020017f6f776e6572000000000000000000000000000000000000000000000000000000815250612e71565b5b612f90576040517f08c379a0000000000000000000000000000000000000000000000000000000008152600401612f8790613e4b565b60405180910390fd5b612fcf826040518060400160405280600681526020017f73656c6c65720000000000000000000000000000000000000000000000000000815250612e71565b612fdd578260a00151612fe3565b82608001515b905092915050565b60405180610120016040528060008152602001600073ffffffffffffffffffffffffffffffffffffffff16815260200160008152602001600073ffffffffffffffffffffffffffffffffffffffff168152602001600073ffffffffffffffffffffffffffffffffffffffff168152602001600073ffffffffffffffffffffffffffffffffffffffff168152602001600081526020016000151581526020016000151581525090565b600081519050919050565b600082825260208201905092915050565b6000819050602082019050919050565b6000819050919050565b6130d2816130bf565b82525050565b600073ffffffffffffffffffffffffffffffffffffffff82169050919050565b6000613103826130d8565b9050919050565b613113816130f8565b82525050565b6000613124826130d8565b9050919050565b61313481613119565b82525050565b60008115159050919050565b61314f8161313a565b82525050565b6101208201600082015161316c60008501826130c9565b50602082015161317f602085018261310a565b50604082015161319260408501826130c9565b5060608201516131a5606085018261312b565b5060808201516131b8608085018261312b565b5060a08201516131cb60a085018261312b565b5060c08201516131de60c08501826130c9565b5060e08201516131f160e0850182613146565b50610100820151613206610100850182613146565b50505050565b60006132188383613155565b6101208301905092915050565b6000602082019050919050565b600061323d82613093565b613247818561309e565b9350613252836130af565b8060005b8381101561328357815161326a888261320c565b975061327583613225565b925050600181019050613256565b5085935050505092915050565b600060208201905081810360008301526132aa8184613232565b905092915050565b6000604051905090565b600080fd5b600080fd5b6132cf816130bf565b81146132da57600080fd5b50565b6000813590506132ec816132c6565b92915050565b60008060408385031215613309576133086132bc565b5b6000613317858286016132dd565b9250506020613328858286016132dd565b9150509250929050565b60008060006060848603121561334b5761334a6132bc565b5b6000613359868287016132dd565b935050602061336a868287016132dd565b925050604061337b868287016132dd565b9150509250925092565b600080fd5b6000601f19601f8301169050919050565b7f4e487b7100000000000000000000000000000000000000000000000000000000600052604160045260246000fd5b6133d38261338a565b810181811067ffffffffffffffff821117156133f2576133f161339b565b5b80604052505050565b60006134056132b2565b905061341182826133ca565b919050565b600067ffffffffffffffff8211156134315761343061339b565b5b602082029050602081019050919050565b600080fd5b600061345a61345584613416565b6133fb565b9050808382526020820190506020840283018581111561347d5761347c613442565b5b835b818110156134a6578061349288826132dd565b84526020840193505060208101905061347f565b5050509392505050565b600082601f8301126134c5576134c4613385565b5b81356134d5848260208601613447565b91505092915050565b6000602082840312156134f4576134f36132bc565b5b600082013567ffffffffffffffff811115613512576135116132c1565b5b61351e848285016134b0565b91505092915050565b613530816130f8565b811461353b57600080fd5b50565b60008135905061354d81613527565b92915050565b60008060006060848603121561356c5761356b6132bc565b5b600061357a8682870161353e565b935050602061358b868287016132dd565b925050604061359c868287016132dd565b9150509250925092565b6135af816130bf565b82525050565b60006020820190506135ca60008301846135a6565b92915050565b600080604083850312156135e7576135e66132bc565b5b600083013567ffffffffffffffff811115613605576136046132c1565b5b613611858286016134b0565b9250506020613622858286016132dd565b9150509250929050565b600060208284031215613642576136416132bc565b5b6000613650848285016132dd565b91505092915050565b6101208201600082015161367060008501826130c9565b506020820151613683602085018261310a565b50604082015161369660408501826130c9565b5060608201516136a9606085018261312b565b5060808201516136bc608085018261312b565b5060a08201516136cf60a085018261312b565b5060c08201516136e260c08501826130c9565b5060e08201516136f560e0850182613146565b5061010082015161370a610100850182613146565b50505050565b6137198161313a565b82525050565b6000610140820190506137356000830185613659565b613743610120830184613710565b9392505050565b60008060408385031215613761576137606132bc565b5b600061376f8582860161353e565b9250506020613780858286016132dd565b9150509250929050565b600080fd5b600067ffffffffffffffff8211156137aa576137a961339b565b5b6137b38261338a565b9050602081019050919050565b82818337600083830152505050565b60006137e26137dd8461378f565b6133fb565b9050828152602081018484840111156137fe576137fd61378a565b5b6138098482856137c0565b509392505050565b600082601f83011261382657613825613385565b5b81356138368482602086016137cf565b91505092915050565b600060208284031215613855576138546132bc565b5b600082013567ffffffffffffffff811115613873576138726132c1565b5b61387f84828501613811565b91505092915050565b7f4e487b7100000000000000000000000000000000000000000000000000000000600052601160045260246000fd5b60006138c2826130bf565b91506138cd836130bf565b92508282039050818111156138e5576138e4613888565b5b92915050565b60006138f6826130bf565b9150613901836130bf565b925082820190508082111561391957613918613888565b5b92915050565b6139288161313a565b811461393357600080fd5b50565b6000815190506139458161391f565b92915050565b600060208284031215613961576139606132bc565b5b600061396f84828501613936565b91505092915050565b7f4e487b7100000000000000000000000000000000000000000000000000000000600052603260045260246000fd5b60006139b2826130bf565b91507fffffffffffffffffffffffffffffffffffffffffffffffffffffffffffffffff82036139e4576139e3613888565b5b600182019050919050565b600082825260208201905092915050565b7f5072696365206d757374206265206174206c6561737420312077656900000000600082015250565b6000613a36601c836139ef565b9150613a4182613a00565b602082019050919050565b60006020820190508181036000830152613a6581613a29565b9050919050565b7f5072696365206d75737420626520657175616c20746f206c697374696e67207060008201527f7269636500000000000000000000000000000000000000000000000000000000602082015250565b6000613ac86024836139ef565b9150613ad382613a6c565b604082019050919050565b60006020820190508181036000830152613af781613abb565b9050919050565b600081519050613b0d81613527565b92915050565b600060208284031215613b2957613b286132bc565b5b6000613b3784828501613afe565b91505092915050565b613b49816130f8565b82525050565b6000606082019050613b646000830186613b40565b613b716020830185613b40565b613b7e60408301846135a6565b949350505050565b6000819050919050565b6000613bab613ba6613ba1846130d8565b613b86565b6130d8565b9050919050565b6000613bbd82613b90565b9050919050565b6000613bcf82613bb2565b9050919050565b613bdf81613bc4565b82525050565b600060c082019050613bfa6000830189613bd6565b613c076020830188613bd6565b613c146040830187613bd6565b613c2160608301866135a6565b613c2e6080830185613710565b613c3b60a0830184613710565b979650505050505050565b6000613c51826130bf565b915060008203613c6457613c63613888565b5b600182039050919050565b7f4d61726b6574206974656d2068617320746f2065786973740000000000000000600082015250565b6000613ca56018836139ef565b9150613cb082613c6f565b602082019050919050565b60006020820190508181036000830152613cd481613c98565b9050919050565b7f596f7520617265206e6f74207468652073656c6c657200000000000000000000600082015250565b6000613d116016836139ef565b9150613d1c82613cdb565b602082019050919050565b60006020820190508181036000830152613d4081613d04565b9050919050565b7f506c65617365207375626d6974207468652061736b696e67207072696365206960008201527f6e206f7264657220746f20636f6e74696e756500000000000000000000000000602082015250565b6000613da36033836139ef565b9150613dae82613d47565b604082019050919050565b60006020820190508181036000830152613dd281613d96565b9050919050565b7f506172616d65746572206d757374206265202773656c6c657227206f7220276f60008201527f776e657227000000000000000000000000000000000000000000000000000000602082015250565b6000613e356025836139ef565b9150613e4082613dd9565b604082019050919050565b60006020820190508181036000830152613e6481613e28565b9050919050565b7f5265656e7472616e637947756172643a207265656e7472616e742063616c6c00600082015250565b6000613ea1601f836139ef565b9150613eac82613e6b565b602082019050919050565b60006020820190508181036000830152613ed081613e94565b9050919050565b600081519050919050565b600081905092915050565b60005b83811015613f0b578082015181840152602081019050613ef0565b60008484015250505050565b6000613f2282613ed7565b613f2c8185613ee2565b9350613f3c818560208601613eed565b80840191505092915050565b6000613f548284613f17565b91508190509291505056fea2646970667358221220fd8ac093baff432849c152016d48ba55b98479d86f0285e2fcd8ed57657ad42e64736f6c63430008120033",
  "linkReferences": {},
  "deployedLinkReferences": {}
}