{
  "_format": "hh-sol-artifact-1",
  "contractName": "Marketplace_HD",
  "sourceName": "contracts/Marketplace_HD.sol",
  "abi": [
    {
      "inputs": [],
      "stateMutability": "nonpayable",
      "type": "constructor"
    },
    {
      "anonymous": false,
      "inputs": [
        {
          "indexed": true,
          "internalType": "uint256",
          "name": "marketItemId",
          "type": "uint256"
        },
        {
          "indexed": true,
          "internalType": "address",
          "name": "nftContract",
          "type": "address"
        },
        {
          "indexed": true,
          "internalType": "uint256",
          "name": "tokenId",
          "type": "uint256"
        },
        {
          "indexed": false,
          "internalType": "address",
          "name": "creator",
          "type": "address"
        },
        {
          "indexed": false,
          "internalType": "address",
          "name": "seller",
          "type": "address"
        },
        {
          "indexed": false,
          "internalType": "address",
          "name": "owner",
          "type": "address"
        },
        {
          "indexed": false,
          "internalType": "uint256",
          "name": "price",
          "type": "uint256"
        },
        {
          "indexed": false,
          "internalType": "bool",
          "name": "sold",
          "type": "bool"
        },
        {
          "indexed": false,
          "internalType": "bool",
          "name": "canceled",
          "type": "bool"
        }
      ],
      "name": "MarketItemCreated",
      "type": "event"
    },
    {
      "inputs": [
        {
          "internalType": "address",
          "name": "nftContractAddress",
          "type": "address"
        },
        {
          "internalType": "uint256",
          "name": "marketItemId",
          "type": "uint256"
        }
      ],
      "name": "cancelMarketItem",
      "outputs": [],
      "stateMutability": "payable",
      "type": "function"
    },
    {
      "inputs": [
        {
          "internalType": "address",
          "name": "nftContractAddress",
          "type": "address"
        },
        {
          "internalType": "uint256",
          "name": "tokenId",
          "type": "uint256"
        },
        {
          "internalType": "uint256",
          "name": "price",
          "type": "uint256"
        }
      ],
      "name": "createMarketItem",
      "outputs": [
        {
          "internalType": "uint256",
          "name": "",
          "type": "uint256"
        }
      ],
      "stateMutability": "payable",
      "type": "function"
    },
    {
      "inputs": [
        {
          "internalType": "address",
          "name": "nftContractAddress",
          "type": "address"
        },
        {
          "internalType": "uint256",
          "name": "marketItemId",
          "type": "uint256"
        }
      ],
      "name": "createMarketSale",
      "outputs": [],
      "stateMutability": "payable",
      "type": "function"
    },
    {
      "inputs": [
        {
          "internalType": "uint256[]",
          "name": "arrIds",
          "type": "uint256[]"
        },
        {
          "internalType": "uint256",
          "name": "typeId",
          "type": "uint256"
        }
      ],
      "name": "fetchMarketItemsByMarketItemIds",
      "outputs": [
        {
          "components": [
            {
              "internalType": "uint256",
              "name": "marketItemId",
              "type": "uint256"
            },
            {
              "internalType": "address",
              "name": "nftContractAddress",
              "type": "address"
            },
            {
              "internalType": "uint256",
              "name": "tokenId",
              "type": "uint256"
            },
            {
              "internalType": "address payable",
              "name": "creator",
              "type": "address"
            },
            {
              "internalType": "address payable",
              "name": "seller",
              "type": "address"
            },
            {
              "internalType": "address payable",
              "name": "owner",
              "type": "address"
            },
            {
              "internalType": "uint256",
              "name": "price",
              "type": "uint256"
            },
            {
              "internalType": "bool",
              "name": "sold",
              "type": "bool"
            },
            {
              "internalType": "bool",
              "name": "canceled",
              "type": "bool"
            }
          ],
          "internalType": "struct Marketplace_HD.MarketItem[]",
          "name": "",
          "type": "tuple[]"
        }
      ],
      "stateMutability": "view",
      "type": "function"
    },
    {
      "inputs": [
        {
          "internalType": "uint256",
          "name": "minId",
          "type": "uint256"
        },
        {
          "internalType": "uint256",
          "name": "maxId",
          "type": "uint256"
        },
        {
          "internalType": "uint256",
          "name": "typeId",
          "type": "uint256"
        }
      ],
      "name": "fetchMarketItemsInRange",
      "outputs": [
        {
          "components": [
            {
              "internalType": "uint256",
              "name": "marketItemId",
              "type": "uint256"
            },
            {
              "internalType": "address",
              "name": "nftContractAddress",
              "type": "address"
            },
            {
              "internalType": "uint256",
              "name": "tokenId",
              "type": "uint256"
            },
            {
              "internalType": "address payable",
              "name": "creator",
              "type": "address"
            },
            {
              "internalType": "address payable",
              "name": "seller",
              "type": "address"
            },
            {
              "internalType": "address payable",
              "name": "owner",
              "type": "address"
            },
            {
              "internalType": "uint256",
              "name": "price",
              "type": "uint256"
            },
            {
              "internalType": "bool",
              "name": "sold",
              "type": "bool"
            },
            {
              "internalType": "bool",
              "name": "canceled",
              "type": "bool"
            }
          ],
          "internalType": "struct Marketplace_HD.MarketItem[]",
          "name": "",
          "type": "tuple[]"
        }
      ],
      "stateMutability": "view",
      "type": "function"
    },
    {
      "inputs": [
        {
          "internalType": "uint256",
          "name": "minId",
          "type": "uint256"
        },
        {
          "internalType": "uint256",
          "name": "maxId",
          "type": "uint256"
        },
        {
          "internalType": "uint256",
          "name": "typeId",
          "type": "uint256"
        },
        {
          "internalType": "uint256",
          "name": "limit",
          "type": "uint256"
        }
      ],
      "name": "fetchMarketItemsInRangeWithLimit",
      "outputs": [
        {
          "components": [
            {
              "internalType": "uint256",
              "name": "marketItemId",
              "type": "uint256"
            },
            {
              "internalType": "address",
              "name": "nftContractAddress",
              "type": "address"
            },
            {
              "internalType": "uint256",
              "name": "tokenId",
              "type": "uint256"
            },
            {
              "internalType": "address payable",
              "name": "creator",
              "type": "address"
            },
            {
              "internalType": "address payable",
              "name": "seller",
              "type": "address"
            },
            {
              "internalType": "address payable",
              "name": "owner",
              "type": "address"
            },
            {
              "internalType": "uint256",
              "name": "price",
              "type": "uint256"
            },
            {
              "internalType": "bool",
              "name": "sold",
              "type": "bool"
            },
            {
              "internalType": "bool",
              "name": "canceled",
              "type": "bool"
            }
          ],
          "internalType": "struct Marketplace_HD.MarketItem[]",
          "name": "",
          "type": "tuple[]"
        }
      ],
      "stateMutability": "view",
      "type": "function"
    },
    {
      "inputs": [
        {
          "internalType": "uint256[]",
          "name": "arrIds",
          "type": "uint256[]"
        },
        {
          "internalType": "uint256",
          "name": "typeId",
          "type": "uint256"
        }
      ],
      "name": "fetchMoreMarketItemsByMarketItemIds",
      "outputs": [
        {
          "components": [
            {
              "internalType": "uint256",
              "name": "marketItemId",
              "type": "uint256"
            },
            {
              "internalType": "address",
              "name": "nftContractAddress",
              "type": "address"
            },
            {
              "internalType": "uint256",
              "name": "tokenId",
              "type": "uint256"
            },
            {
              "internalType": "address payable",
              "name": "creator",
              "type": "address"
            },
            {
              "internalType": "address payable",
              "name": "seller",
              "type": "address"
            },
            {
              "internalType": "address payable",
              "name": "owner",
              "type": "address"
            },
            {
              "internalType": "uint256",
              "name": "price",
              "type": "uint256"
            },
            {
              "internalType": "bool",
              "name": "sold",
              "type": "bool"
            },
            {
              "internalType": "bool",
              "name": "canceled",
              "type": "bool"
            }
          ],
          "internalType": "struct Marketplace_HD.MarketItem[]",
          "name": "",
          "type": "tuple[]"
        }
      ],
      "stateMutability": "view",
      "type": "function"
    },
    {
      "inputs": [],
      "name": "getListingFee",
      "outputs": [
        {
          "internalType": "uint256",
          "name": "",
          "type": "uint256"
        }
      ],
      "stateMutability": "view",
      "type": "function"
    },
    {
      "inputs": [
        {
          "internalType": "uint256",
          "name": "typeId",
          "type": "uint256"
        }
      ],
      "name": "numberOfMarketItems",
      "outputs": [
        {
          "internalType": "uint256",
          "name": "",
          "type": "uint256"
        }
      ],
      "stateMutability": "view",
      "type": "function"
    }
  ],
  "bytecode": "0x608060405265b5e620f4800060055534801561001a57600080fd5b50600160008190555033600460006101000a81548173ffffffffffffffffffffffffffffffffffffffff021916908373ffffffffffffffffffffffffffffffffffffffff1602179055506127c4806100736000396000f3fe6080604052600436106100865760003560e01c8063b8fe6abe11610059578063b8fe6abe14610151578063c23b139e1461017c578063df35a2a014610198578063e60a3bf1146101d5578063f5c7196b1461021257610086565b806358eb2df51461008b578063686ad91c146100bb5780637f6a34b5146100f8578063b3e3c42f14610135575b600080fd5b6100a560048036038101906100a09190611caf565b61024f565b6040516100b29190611d11565b60405180910390f35b3480156100c757600080fd5b506100e260048036038101906100dd9190611e85565b610685565b6040516100ef91906120a2565b60405180910390f35b34801561010457600080fd5b5061011f600480360381019061011a91906120c4565b610a6d565b60405161012c91906120a2565b60405180910390f35b61014f600480360381019061014a919061212b565b610e11565b005b34801561015d57600080fd5b50610166611090565b6040516101739190611d11565b60405180910390f35b6101966004803603810190610191919061212b565b61109a565b005b3480156101a457600080fd5b506101bf60048036038101906101ba919061216b565b61130d565b6040516101cc91906120a2565b60405180910390f35b3480156101e157600080fd5b506101fc60048036038101906101f791906121be565b6116b2565b6040516102099190611d11565b60405180910390f35b34801561021e57600080fd5b5061023960048036038101906102349190611e85565b6116fa565b60405161024691906120a2565b60405180910390f35b6000610259611ae2565b6000821161029c576040517f08c379a000000000000000000000000000000000000000000000000000000000815260040161029390612248565b60405180910390fd5b60055434146102e0576040517f08c379a00000000000000000000000000000000000000000000000000000000081526004016102d7906122da565b60405180910390fd5b6102ea6001611b31565b60006102f66001611b47565b905060008573ffffffffffffffffffffffffffffffffffffffff1663867d3397866040518263ffffffff1660e01b81526004016103339190611d11565b602060405180830381865afa158015610350573d6000803e3d6000fd5b505050506040513d601f19601f82011682018060405250810190610374919061230f565b90508573ffffffffffffffffffffffffffffffffffffffff166323b872dd3330886040518463ffffffff1660e01b81526004016103b39392919061234b565b600060405180830381600087803b1580156103cd57600080fd5b505af11580156103e1573d6000803e3d6000fd5b505050506040518061012001604052808381526020018773ffffffffffffffffffffffffffffffffffffffff1681526020018681526020018273ffffffffffffffffffffffffffffffffffffffff1681526020013373ffffffffffffffffffffffffffffffffffffffff168152602001600073ffffffffffffffffffffffffffffffffffffffff16815260200185815260200160001515815260200160001515815250600660008481526020019081526020016000206000820151816000015560208201518160010160006101000a81548173ffffffffffffffffffffffffffffffffffffffff021916908373ffffffffffffffffffffffffffffffffffffffff1602179055506040820151816002015560608201518160030160006101000a81548173ffffffffffffffffffffffffffffffffffffffff021916908373ffffffffffffffffffffffffffffffffffffffff16021790555060808201518160040160006101000a81548173ffffffffffffffffffffffffffffffffffffffff021916908373ffffffffffffffffffffffffffffffffffffffff16021790555060a08201518160050160006101000a81548173ffffffffffffffffffffffffffffffffffffffff021916908373ffffffffffffffffffffffffffffffffffffffff16021790555060c0820151816006015560e08201518160070160006101000a81548160ff0219169083151502179055506101008201518160070160016101000a81548160ff021916908315150217905550905050848673ffffffffffffffffffffffffffffffffffffffff16837fa3b15201f5409f14cce6233dc60972278c313ff3ddbdee57ff092c0e95313526843360008a600080604051610669969594939291906123f0565b60405180910390a4819250505061067e611b55565b9392505050565b60606000603084511161069957835161069c565b60305b905060008167ffffffffffffffff8111156106ba576106b9611d42565b5b6040519080825280602002602001820160405280156106f357816020015b6106e0611b5f565b8152602001906001900390816106d85790505b5090506000805b83811015610a605761070c6001611b47565b87828151811061071f5761071e612451565b5b6020026020010151118061074d5750600087828151811061074357610742612451565b5b6020026020010151105b610a4f5760006006600089848151811061076a57610769612451565b5b6020026020010151815260200190815260200160002060405180610120016040529081600082015481526020016001820160009054906101000a900473ffffffffffffffffffffffffffffffffffffffff1673ffffffffffffffffffffffffffffffffffffffff1673ffffffffffffffffffffffffffffffffffffffff168152602001600282015481526020016003820160009054906101000a900473ffffffffffffffffffffffffffffffffffffffff1673ffffffffffffffffffffffffffffffffffffffff1673ffffffffffffffffffffffffffffffffffffffff1681526020016004820160009054906101000a900473ffffffffffffffffffffffffffffffffffffffff1673ffffffffffffffffffffffffffffffffffffffff1673ffffffffffffffffffffffffffffffffffffffff1681526020016005820160009054906101000a900473ffffffffffffffffffffffffffffffffffffffff1673ffffffffffffffffffffffffffffffffffffffff1673ffffffffffffffffffffffffffffffffffffffff168152602001600682015481526020016007820160009054906101000a900460ff161515151581526020016007820160019054906101000a900460ff1615151515815250509050600073ffffffffffffffffffffffffffffffffffffffff168160a0015173ffffffffffffffffffffffffffffffffffffffff161415801561097b5750600187145b156109865750610a4f565b806020015173ffffffffffffffffffffffffffffffffffffffff1663623c3b7382604001516040518263ffffffff1660e01b81526004016109c79190611d11565b602060405180830381865afa1580156109e4573d6000803e3d6000fd5b505050506040513d601f19601f82011682018060405250810190610a0891906124ac565b8015610a145750600187145b15610a1f5750610a4f565b80848481518110610a3357610a32612451565b5b6020026020010181905250600183610a4b9190612508565b9250505b80610a599061253c565b90506106fa565b5081935050505092915050565b60606000828686610a7e9190612584565b11610a94578585610a8f9190612584565b610a96565b825b905060008167ffffffffffffffff811115610ab457610ab3611d42565b5b604051908082528060200260200182016040528015610aed57816020015b610ada611b5f565b815260200190600190039081610ad25790505b5090506000808890505b87811015610e0257600060066000600184610b129190612508565b815260200190815260200160002060405180610120016040529081600082015481526020016001820160009054906101000a900473ffffffffffffffffffffffffffffffffffffffff1673ffffffffffffffffffffffffffffffffffffffff1673ffffffffffffffffffffffffffffffffffffffff168152602001600282015481526020016003820160009054906101000a900473ffffffffffffffffffffffffffffffffffffffff1673ffffffffffffffffffffffffffffffffffffffff1673ffffffffffffffffffffffffffffffffffffffff1681526020016004820160009054906101000a900473ffffffffffffffffffffffffffffffffffffffff1673ffffffffffffffffffffffffffffffffffffffff1673ffffffffffffffffffffffffffffffffffffffff1681526020016005820160009054906101000a900473ffffffffffffffffffffffffffffffffffffffff1673ffffffffffffffffffffffffffffffffffffffff1673ffffffffffffffffffffffffffffffffffffffff168152602001600682015481526020016007820160009054906101000a900460ff161515151581526020016007820160019054906101000a900460ff1615151515815250509050600073ffffffffffffffffffffffffffffffffffffffff168160a0015173ffffffffffffffffffffffffffffffffffffffff1614158015610d1b5750600188145b15610d265750610def565b806020015173ffffffffffffffffffffffffffffffffffffffff1663623c3b7382604001516040518263ffffffff1660e01b8152600401610d679190611d11565b602060405180830381865afa158015610d84573d6000803e3d6000fd5b505050506040513d601f19601f82011682018060405250810190610da891906124ac565b8015610db45750600188145b15610dbf5750610def565b80848481518110610dd357610dd2612451565b5b6020026020010181905250600183610deb9190612508565b9250505b8080610dfa9061253c565b915050610af7565b50819350505050949350505050565b610e19611ae2565b60006006600083815260200190815260200160002060020154905060008111610e77576040517f08c379a0000000000000000000000000000000000000000000000000000000008152600401610e6e90612604565b60405180910390fd5b3373ffffffffffffffffffffffffffffffffffffffff166006600084815260200190815260200160002060040160009054906101000a900473ffffffffffffffffffffffffffffffffffffffff1673ffffffffffffffffffffffffffffffffffffffff1614610f1b576040517f08c379a0000000000000000000000000000000000000000000000000000000008152600401610f1290612670565b60405180910390fd5b8273ffffffffffffffffffffffffffffffffffffffff166323b872dd3033846040518463ffffffff1660e01b8152600401610f589392919061234b565b600060405180830381600087803b158015610f7257600080fd5b505af1158015610f86573d6000803e3d6000fd5b50505050336006600084815260200190815260200160002060050160006101000a81548173ffffffffffffffffffffffffffffffffffffffff021916908373ffffffffffffffffffffffffffffffffffffffff16021790555060016006600084815260200190815260200160002060070160016101000a81548160ff0219169083151502179055506110186003611b31565b600460009054906101000a900473ffffffffffffffffffffffffffffffffffffffff1673ffffffffffffffffffffffffffffffffffffffff166108fc6005549081150290604051600060405180830381858888f19350505050158015611082573d6000803e3d6000fd5b505061108c611b55565b5050565b6000600554905090565b6110a2611ae2565b60006006600083815260200190815260200160002060060154905060006006600084815260200190815260200160002060020154905081341461111a576040517f08c379a000000000000000000000000000000000000000000000000000000000815260040161111190612702565b60405180910390fd5b6006600084815260200190815260200160002060040160009054906101000a900473ffffffffffffffffffffffffffffffffffffffff1673ffffffffffffffffffffffffffffffffffffffff166108fc349081150290604051600060405180830381858888f19350505050158015611196573d6000803e3d6000fd5b508373ffffffffffffffffffffffffffffffffffffffff166323b872dd3033846040518463ffffffff1660e01b81526004016111d49392919061234b565b600060405180830381600087803b1580156111ee57600080fd5b505af1158015611202573d6000803e3d6000fd5b50505050336006600085815260200190815260200160002060050160006101000a81548173ffffffffffffffffffffffffffffffffffffffff021916908373ffffffffffffffffffffffffffffffffffffffff16021790555060016006600085815260200190815260200160002060070160006101000a81548160ff0219169083151502179055506112946002611b31565b600460009054906101000a900473ffffffffffffffffffffffffffffffffffffffff1673ffffffffffffffffffffffffffffffffffffffff166108fc6005549081150290604051600060405180830381858888f193505050501580156112fe573d6000803e3d6000fd5b505050611309611b55565b5050565b606060006030858561131f9190612584565b116113355784846113309190612584565b611338565b60305b905060008167ffffffffffffffff81111561135657611355611d42565b5b60405190808252806020026020018201604052801561138f57816020015b61137c611b5f565b8152602001906001900390816113745790505b5090506000808790505b868110156116a4576000600660006001846113b49190612508565b815260200190815260200160002060405180610120016040529081600082015481526020016001820160009054906101000a900473ffffffffffffffffffffffffffffffffffffffff1673ffffffffffffffffffffffffffffffffffffffff1673ffffffffffffffffffffffffffffffffffffffff168152602001600282015481526020016003820160009054906101000a900473ffffffffffffffffffffffffffffffffffffffff1673ffffffffffffffffffffffffffffffffffffffff1673ffffffffffffffffffffffffffffffffffffffff1681526020016004820160009054906101000a900473ffffffffffffffffffffffffffffffffffffffff1673ffffffffffffffffffffffffffffffffffffffff1673ffffffffffffffffffffffffffffffffffffffff1681526020016005820160009054906101000a900473ffffffffffffffffffffffffffffffffffffffff1673ffffffffffffffffffffffffffffffffffffffff1673ffffffffffffffffffffffffffffffffffffffff168152602001600682015481526020016007820160009054906101000a900460ff161515151581526020016007820160019054906101000a900460ff1615151515815250509050600073ffffffffffffffffffffffffffffffffffffffff168160a0015173ffffffffffffffffffffffffffffffffffffffff16141580156115bd5750600187145b156115c85750611691565b806020015173ffffffffffffffffffffffffffffffffffffffff1663623c3b7382604001516040518263ffffffff1660e01b81526004016116099190611d11565b602060405180830381865afa158015611626573d6000803e3d6000fd5b505050506040513d601f19601f8201168201806040525081019061164a91906124ac565b80156116565750600187145b156116615750611691565b8084848151811061167557611674612451565b5b602002602001018190525060018361168d9190612508565b9250505b808061169c9061253c565b915050611399565b508193505050509392505050565b600080600083146116e457600183146116d4576116cf6003611b47565b6116df565b6116de6002611b47565b5b6116ef565b6116ee6001611b47565b5b905080915050919050565b60606000606084511161170e578351611711565b60605b905060008167ffffffffffffffff81111561172f5761172e611d42565b5b60405190808252806020026020018201604052801561176857816020015b611755611b5f565b81526020019060019003908161174d5790505b5090506000805b83811015611ad5576117816001611b47565b87828151811061179457611793612451565b5b602002602001015111806117c2575060008782815181106117b8576117b7612451565b5b6020026020010151105b611ac4576000600660008984815181106117df576117de612451565b5b6020026020010151815260200190815260200160002060405180610120016040529081600082015481526020016001820160009054906101000a900473ffffffffffffffffffffffffffffffffffffffff1673ffffffffffffffffffffffffffffffffffffffff1673ffffffffffffffffffffffffffffffffffffffff168152602001600282015481526020016003820160009054906101000a900473ffffffffffffffffffffffffffffffffffffffff1673ffffffffffffffffffffffffffffffffffffffff1673ffffffffffffffffffffffffffffffffffffffff1681526020016004820160009054906101000a900473ffffffffffffffffffffffffffffffffffffffff1673ffffffffffffffffffffffffffffffffffffffff1673ffffffffffffffffffffffffffffffffffffffff1681526020016005820160009054906101000a900473ffffffffffffffffffffffffffffffffffffffff1673ffffffffffffffffffffffffffffffffffffffff1673ffffffffffffffffffffffffffffffffffffffff168152602001600682015481526020016007820160009054906101000a900460ff161515151581526020016007820160019054906101000a900460ff1615151515815250509050600073ffffffffffffffffffffffffffffffffffffffff168160a0015173ffffffffffffffffffffffffffffffffffffffff16141580156119f05750600187145b156119fb5750611ac4565b806020015173ffffffffffffffffffffffffffffffffffffffff1663623c3b7382604001516040518263ffffffff1660e01b8152600401611a3c9190611d11565b602060405180830381865afa158015611a59573d6000803e3d6000fd5b505050506040513d601f19601f82011682018060405250810190611a7d91906124ac565b8015611a895750600187145b15611a945750611ac4565b80848481518110611aa857611aa7612451565b5b6020026020010181905250600183611ac09190612508565b9250505b80611ace9061253c565b905061176f565b5081935050505092915050565b600260005403611b27576040517f08c379a0000000000000000000000000000000000000000000000000000000008152600401611b1e9061276e565b60405180910390fd5b6002600081905550565b6001816000016000828254019250508190555050565b600081600001549050919050565b6001600081905550565b60405180610120016040528060008152602001600073ffffffffffffffffffffffffffffffffffffffff16815260200160008152602001600073ffffffffffffffffffffffffffffffffffffffff168152602001600073ffffffffffffffffffffffffffffffffffffffff168152602001600073ffffffffffffffffffffffffffffffffffffffff168152602001600081526020016000151581526020016000151581525090565b6000604051905090565b600080fd5b600080fd5b600073ffffffffffffffffffffffffffffffffffffffff82169050919050565b6000611c4682611c1b565b9050919050565b611c5681611c3b565b8114611c6157600080fd5b50565b600081359050611c7381611c4d565b92915050565b6000819050919050565b611c8c81611c79565b8114611c9757600080fd5b50565b600081359050611ca981611c83565b92915050565b600080600060608486031215611cc857611cc7611c11565b5b6000611cd686828701611c64565b9350506020611ce786828701611c9a565b9250506040611cf886828701611c9a565b9150509250925092565b611d0b81611c79565b82525050565b6000602082019050611d266000830184611d02565b92915050565b600080fd5b6000601f19601f8301169050919050565b7f4e487b7100000000000000000000000000000000000000000000000000000000600052604160045260246000fd5b611d7a82611d31565b810181811067ffffffffffffffff82111715611d9957611d98611d42565b5b80604052505050565b6000611dac611c07565b9050611db88282611d71565b919050565b600067ffffffffffffffff821115611dd857611dd7611d42565b5b602082029050602081019050919050565b600080fd5b6000611e01611dfc84611dbd565b611da2565b90508083825260208201905060208402830185811115611e2457611e23611de9565b5b835b81811015611e4d5780611e398882611c9a565b845260208401935050602081019050611e26565b5050509392505050565b600082601f830112611e6c57611e6b611d2c565b5b8135611e7c848260208601611dee565b91505092915050565b60008060408385031215611e9c57611e9b611c11565b5b600083013567ffffffffffffffff811115611eba57611eb9611c16565b5b611ec685828601611e57565b9250506020611ed785828601611c9a565b9150509250929050565b600081519050919050565b600082825260208201905092915050565b6000819050602082019050919050565b611f1681611c79565b82525050565b611f2581611c3b565b82525050565b6000611f3682611c1b565b9050919050565b611f4681611f2b565b82525050565b60008115159050919050565b611f6181611f4c565b82525050565b61012082016000820151611f7e6000850182611f0d565b506020820151611f916020850182611f1c565b506040820151611fa46040850182611f0d565b506060820151611fb76060850182611f3d565b506080820151611fca6080850182611f3d565b5060a0820151611fdd60a0850182611f3d565b5060c0820151611ff060c0850182611f0d565b5060e082015161200360e0850182611f58565b50610100820151612018610100850182611f58565b50505050565b600061202a8383611f67565b6101208301905092915050565b6000602082019050919050565b600061204f82611ee1565b6120598185611eec565b935061206483611efd565b8060005b8381101561209557815161207c888261201e565b975061208783612037565b925050600181019050612068565b5085935050505092915050565b600060208201905081810360008301526120bc8184612044565b905092915050565b600080600080608085870312156120de576120dd611c11565b5b60006120ec87828801611c9a565b94505060206120fd87828801611c9a565b935050604061210e87828801611c9a565b925050606061211f87828801611c9a565b91505092959194509250565b6000806040838503121561214257612141611c11565b5b600061215085828601611c64565b925050602061216185828601611c9a565b9150509250929050565b60008060006060848603121561218457612183611c11565b5b600061219286828701611c9a565b93505060206121a386828701611c9a565b92505060406121b486828701611c9a565b9150509250925092565b6000602082840312156121d4576121d3611c11565b5b60006121e284828501611c9a565b91505092915050565b600082825260208201905092915050565b7f5072696365206d757374206265206174206c6561737420312077656900000000600082015250565b6000612232601c836121eb565b915061223d826121fc565b602082019050919050565b6000602082019050818103600083015261226181612225565b9050919050565b7f5072696365206d75737420626520657175616c20746f206c697374696e67207060008201527f7269636500000000000000000000000000000000000000000000000000000000602082015250565b60006122c46024836121eb565b91506122cf82612268565b604082019050919050565b600060208201905081810360008301526122f3816122b7565b9050919050565b60008151905061230981611c4d565b92915050565b60006020828403121561232557612324611c11565b5b6000612333848285016122fa565b91505092915050565b61234581611c3b565b82525050565b6000606082019050612360600083018661233c565b61236d602083018561233c565b61237a6040830184611d02565b949350505050565b6000819050919050565b60006123a76123a261239d84611c1b565b612382565b611c1b565b9050919050565b60006123b98261238c565b9050919050565b60006123cb826123ae565b9050919050565b6123db816123c0565b82525050565b6123ea81611f4c565b82525050565b600060c08201905061240560008301896123d2565b61241260208301886123d2565b61241f60408301876123d2565b61242c6060830186611d02565b61243960808301856123e1565b61244660a08301846123e1565b979650505050505050565b7f4e487b7100000000000000000000000000000000000000000000000000000000600052603260045260246000fd5b61248981611f4c565b811461249457600080fd5b50565b6000815190506124a681612480565b92915050565b6000602082840312156124c2576124c1611c11565b5b60006124d084828501612497565b91505092915050565b7f4e487b7100000000000000000000000000000000000000000000000000000000600052601160045260246000fd5b600061251382611c79565b915061251e83611c79565b9250828201905080821115612536576125356124d9565b5b92915050565b600061254782611c79565b91507fffffffffffffffffffffffffffffffffffffffffffffffffffffffffffffffff8203612579576125786124d9565b5b600182019050919050565b600061258f82611c79565b915061259a83611c79565b92508282039050818111156125b2576125b16124d9565b5b92915050565b7f4d61726b6574206974656d2068617320746f2065786973740000000000000000600082015250565b60006125ee6018836121eb565b91506125f9826125b8565b602082019050919050565b6000602082019050818103600083015261261d816125e1565b9050919050565b7f596f7520617265206e6f74207468652073656c6c657200000000000000000000600082015250565b600061265a6016836121eb565b915061266582612624565b602082019050919050565b600060208201905081810360008301526126898161264d565b9050919050565b7f506c65617365207375626d6974207468652061736b696e67207072696365206960008201527f6e206f7264657220746f20636f6e74696e756500000000000000000000000000602082015250565b60006126ec6033836121eb565b91506126f782612690565b604082019050919050565b6000602082019050818103600083015261271b816126df565b9050919050565b7f5265656e7472616e637947756172643a207265656e7472616e742063616c6c00600082015250565b6000612758601f836121eb565b915061276382612722565b602082019050919050565b600060208201905081810360008301526127878161274b565b905091905056fea2646970667358221220d81e86be30fa860c23c49d0c32c61f46b23df512c4815122277bcbde0c23412e64736f6c63430008120033",
  "linkReferences": {},
  "deployedLinkReferences": {}
}